:020000040800F2
:10000000B809002029020008AD0C00084D070008BF
:10001000290C0008E903000865170008000000002B
:10002000000000000000000000000000B10F000808
:1000300001050008000000009D0D00081D110008CA
:100040007517000843020008430200084302000835
:10005000430200084302000843020008430200086C
:10006000430200084302000843020008430200085C
:10007000430200084302000843020008430200084C
:10008000430200084302000843020008430200083C
:10009000430200084302000843020008430200082C
:1000A000430200084302000843020008430200081C
:1000B000430200080D120008430200084302000832
:1000C00043020008430200084302000843020008FC
:1000D00043020008851300080D14000843020008BD
:1000E00043020008430200084302000843020008DC
:1000F00043020008430200084302000843020008CC
:1001000043020008430200084302000843020008BB
:1001100043020008430200084302000843020008AB
:10012000430200084302000843020008430200089B
:10013000430200084302000843020008430200088B
:10014000430200084302000843020008430200087B
:10015000430200084302000843020008430200086B
:10016000430200084302000843020008430200085B
:10017000430200084302000843020008430200084B
:10018000430200084302000800F002F800F03CF8C7
:100190000AA090E8000C82448344AAF10107DA45E2
:1001A00001D100F031F8AFF2090EBAE80F0013F0F8
:1001B000010F18BFFB1A43F001031847541B00003E
:1001C000741B0000103A24BF78C878C1FAD85207CF
:1001D00024BF30C830C144BF04680C6070470000C1
:1001E0000023002400250026103A28BF78C1FBD840
:1001F000520728BF30C148BF0B6070471FB501F0E0
:1002000081FD1FBD10B510BD00F033F81146FFF79A
:10021000F5FF01F015FB00F051F803B4FFF7F2FF12
:1002200003BC01F0B9FA00000948804709480047BB
:10023000FEE7FEE7FEE7FEE7FEE7FEE7FEE7FEE796
:10024000FEE7FEE704480549054A064B70470000F3
:10025000A511000889010008B8030020B809002092
:10026000B8050020B80500207047704770477047F8
:100270007047754600F02CF8AE46050069465346B7
:1002800020F00700854618B020B5FFF7DBFFBDE87A
:1002900020404FF000064FF000074FF000084FF0ED
:1002A000000B21F00701AC46ACE8C009ACE8C0097E
:1002B000ACE8C009ACE8C0098D46704710B50446EB
:1002C000AFF300802046BDE81040FFF7A6BF000056
:1002D000004870475403002010B53E4800780128BC
:1002E00036D1012240213C4800F02BFA3B480078EF
:1002F00000F0010028B101228021374800F021FAE6
:1003000014E03648007800F0010078B932484069BE
:1003100000F08000802809D1002280212E4800F0C2
:1003200010FA2F480068401C2D4908602D480068CD
:1003300000F080002B49086030B10846006800F4E6
:1003400000700860002843D10220224908703FE075
:100350002048007802283BD1002240211E4800F0AE
:10036000F0F91E48007800F0010028B10122802138
:10037000194800F0E6F91BE01848007800F0010089
:10038000B0B91548406900F08000802810D10022E3
:100390008021114800F0D5F91148006828B11048B3
:1003A0000068401E0E49086002E000200C49086009
:1003B0000C48006800F480700A49086028B10846BB
:1003C000006800F48060086010B9012001490870DD
:1003D00010BD00004200002000100240200000205C
:1003E0004C0000201008024000BFFEE710B538485E
:1003F0000078012830D101221021364800F0A1F9FF
:100400003548007800F0010028B101222021314850
:1004100000F097F914E03048007800F0010078B956
:100420002C48406900F02000202809D1002220211A
:10043000284800F086F929480068401C27490860D0
:100440002748006800F004002549086000283ED1D4
:1004500002201F4908703AE01D480078022836D172
:10046000002210211B4800F06CF91B48007800F0B6
:10047000010028B101222021164800F062F91BE09A
:100480001548007800F00100B0B91248406900F04A
:100490002000202810D1002220210E4800F051F920
:1004A0000E48006828B10D480068401E0B490860DE
:1004B00002E00020094908600948006800F02000B7
:1004C00028B901200249087000200449086010BDC5
:1004D00044000020001002402000002054000020B2
:1004E000100402400146002000BF04E00022034B3C
:1004F0001A54421C90B28842F8DB704798000020E2
:10050000704700001CB501211F2000F049FC0220AB
:100510008DF805000F20009002208DF80400694638
:100520004B4800F09FF8D020009000208DF8040088
:100530006946474800F096F82020009003208DF887
:10054000040000208DF807006946414800F08AF851
:1005500002208DF805004FF4F850009002208DF82D
:10056000040069463A4800F07DF84FF227000090F9
:1005700000208DF804006946364800F073F84FF407
:100580004070009001208DF8040000208DF80600D6
:1005900003208DF8050001208DF8070069462D48DD
:1005A00000F060F8C020009001208DF804000020C9
:1005B0008DF8060003208DF8050001208DF8070056
:1005C0006946254800F04EF84FF4FC50009000209A
:1005D0008DF804006946204800F044F84FF40050BC
:1005E000009001208DF8040000208DF80600032003
:1005F0008DF8050001208DF807006946164800F0C7
:1006000031F84FF6FF70009001208DF804000020B3
:100610008DF8060003208DF8050001208DF80700F5
:1006200069460E4800F01EF840F2FF3000900120AD
:100630008DF8040000208DF8060003208DF80500D9
:1006400001208DF807006946054800F00BF81CBD35
:10065000000002400004024000080240000C02407A
:1006600000100240F0B50A4600210023002400BF1C
:100670003DE0012505FA01F3156805EA03049C42F3
:1006800034D105684F000326BE40B5430560157997
:100690004E00B5400668354305601579012D02D03E
:1006A0001579022D16D185684F000326BE40B5434B
:1006B000856055794E00B54086683543856045684C
:1006C00001268E40B5434560456896798E40B6B2A6
:1006D00035434560C5684F000326BE40B543C5603D
:1006E000D5794E00B540C6683543C560491C102910
:1006F000BFD3F0BDF0B5002300244D07ED0E02FA84
:1007000005F3CE1000F1200555F826504E07F70EE0
:100710000F26BE40B543CF1000F1200646F8275003
:10072000CE1000F1200555F8265045EA0304CE10FE
:1007300000F1200545F82640F0BD41837047018354
:1007400070470AB1018300E04183704700BFFEE7B4
:100750001CB50121022000F023FB4FF440700090F3
:1007600001208DF8040000208DF8060003208DF88C
:10077000050001208DF8070069460548FFF772FF64
:100780000120044908600449C1F8A4021CBD00000E
:1007900000040240A08240420080404270B50446FE
:1007A0001548006820F44020134908600846006896
:1007B00040F480200860002010490860002517E000
:1007C000E0090E49091D08606006040E022001F0D0
:1007D00011F801200A49C1F8A002022001F00AF82C
:1007E000002006490860022001F004F8681CC5B228
:1007F000082DE5DB70BD000000040240A0824042ED
:100800000080404210B50F48006820F440200D4998
:1008100008600846006840F48020086001200A490A
:1008200008600A49C1F8A002042000F0E3FF00209C
:1008300005490860042000F0DDFF00200349C1F8ED
:10084000A00210BD00040240A48240420080404249
:1008500010B50F48006820F440200D490860084694
:10086000006840F48020086000200A4908600A49B6
:10087000C1F8A402042000F0BDFF01200549086072
:100880000549C1F8A402042000F0B4FF10BD000027
:1008900000040240A08240420080404210B5002483
:1008A0001348006820F44020114908600846006899
:1008B000086001200F49086000F09CFF01200E49EC
:1008C000C1F8A00200F096FF07E0601CC4B2FA2C49
:1008D00003DDFFF7BDFF012010BD0648803800682A
:1008E0000028F2D10349091F086000BFF4E70000A7
:1008F00000040240A48240420080404210B5724889
:100900000078012837D17148006900F4007088B37D
:100910006F48006800F0020060B36E480068B0F5F0
:10092000FA7F11D200224FF480516B48FFF709FF84
:1009300000224FF400616848FFF703FF01225103D2
:100940006548FFF7FEFE11E000224FF400516248B7
:10095000FFF7F7FE00224FF400615F48FFF7F1FE5A
:1009600000224FF480515C48FFF7EBFE04205B4906
:10097000086079E0FFE75A48007840B959480078A4
:1009800028B95948007810B95848007860B35148E0
:100990000068B0F5FA7F11D200224FF400514E48A2
:1009A000FFF7CFFE00224FF400614B48FFF7C9FE6E
:1009B000012211034848FFF7C4FE11E000224FF462
:1009C00080514548FFF7BDFE00224FF400614248C8
:1009D000FFF7B7FE00224FF400513F48FFF7B1FE8A
:1009E00008203E4908603FE037480078F0B93748B2
:1009F000006900F40070C8B13548006800F00200DA
:100A0000A0B100224FF480513348FFF79AFE002234
:100A10004FF400613048FFF794FE012251032E4845
:100A2000FFF78FFE02202D4908601DE0274800696E
:100A300000F40070C0B92648006800F0020098B9C0
:100A400000224FF400512448FFF77BFE00224FF4B0
:100A500000612148FFF775FE012211031E48FFF7D0
:100A600070FE01201D4908601C48007800F020003D
:100A700040B318480068B0F5FA7F11D200224FF455
:100A800080511548FFF75DFE00224FF400511248D7
:100A9000FFF757FE0122D1020F48FFF752FE11E087
:100AA00000224FF480510C48FFF74BFE00224FF418
:100AB00000610948FFF745FE00224FF40051064847
:100AC000FFF73FFE10BD00001400002000000240B0
:100AD0001004024028000020000C024034000020D6
:100AE0004200002043000020440000204500002078
:100AF00010B54748007802283ED1012211464548EA
:100B0000FFF71FFE012204214248FFF71AFE424868
:100B1000007800F0010050B1012202213D48FFF7AA
:100B200010FE012208213B48FFF70BFE19E03A486E
:100B3000007800F00100A0B93648406900F00200DA
:100B400002280ED1002202213248FFF7FAFD0022CE
:100B500008213048FFF7F5FD30480068401C2F4958
:100B600008602F48006800F080002D4908600028C8
:100B70004DD1274908704AE025480078012846D120
:100B8000002201212348FFF7DCFD00220421214837
:100B9000FFF7D7FD2048007800F0010050B1012296
:100BA00002211C48FFF7CDFD012208211948FFF75B
:100BB000C8FD20E01848007800F00100D8B91548B9
:100BC000406900F00200022815D1002202211148DC
:100BD000FFF7B7FD002208210E48FFF7B2FD0F48CE
:100BE000006828B10D480068401E0C49086002E00A
:100BF00000200A4908600B48006900F020000949FC
:100C0000086120B90020024908700449086010BD3D
:100C10004100002000100240240000204800002075
:100C2000100802400000024000BFFEE72DE9F0413D
:100C300005460E461746002409E0E20026FA02F2B5
:100C4000D1B22A1990B200F00BF8601CC4B2BC42B9
:100C5000F3DB012001490870BDE8F081700000203D
:100C600070B504460E46FFF7CDFDA020FFF796FDB8
:100C7000FFF714FE2012FFF791FDFFF70FFE254648
:100C8000E11704EB11610912A4EB0121C8B2FFF7CF
:100C900085FDFFF703FE3046FFF780FDFFF7FEFD01
:100CA000FFF7D6FD0A2000F097FD70BD70470000E9
:100CB0001FB50121022000F083F841F28730029035
:100CC00042F2CF00ADF804000020ADF80600ADF808
:100CD0000C0001A90D4800F013FB012211460B483E
:100CE00000F004FB0121094800F0E3FA1D208DF813
:100CF000000001208DF8010003208DF80200012082
:100D00008DF80300684600F003F81FBD00040040A2
:100D100070B5002100230F22C4781CB3174C24683F
:100D200004F4E064C4F5E064C4F30721C1F10404F1
:100D3000E3B20A4144789C40E1B2847814402143F4
:100D40000C07210E0E4C05786155047804F01F0540
:100D50000124AC4005786D11AD0005F1E025C5F822
:100D6000004109E0047804F01F050124AC40054D62
:100D70000678761145F8264070BD00000CED00E0C5
:100D800000E400E080E100E002490143024A116012
:100D9000704700000000FA050CED00E0704700000D
:100DA00029B1064A12680243044B1A6004E0034A60
:100DB00012688243014B1A607047000030380240CD
:100DC00029B1064A12680243044B1A6004E0034A40
:100DD00012688243014B1A6070470000403802409D
:100DE000F0B5002100220024022500260223324F04
:100DF0003F6807F00C0121B1042905D0082937D13B
:100E000005E02E4F076036E02D4F076033E02A4F94
:100E10003F1F3F68C7F38056274F3F1F3F6807F0CB
:100E20003F036EB1264FB7FBF3F7DFF88CC0ACF190
:100E3000040CDCF800C0CCF3881C07FB0CF40CE0BD
:100E40001E4FB7FBF3F7DFF870C0ACF1040CDCF811
:100E500000C0CCF3881C07FB0CF4174F3F1F3F6802
:100E6000C7F301477F1C7D00B4FBF5F7076002E084
:100E7000124F076000BF00BF0F4F3F6807F0F0013F
:100E80000909104F7A5C0768D74047600A4F3F68EE
:100E900007F4E051890A0B4F7A5C4768D7408760B6
:100EA000054F3F6807F46041490B064F7A5C47687D
:100EB000D740C760F0BD0000083802400024F400AD
:100EC00000127A008600002010B588B00446012187
:100ED0000820FFF765FF01214804FFF771FF072293
:100EE00005212F48FFF706FC072206212C48FFF7B3
:100EF00001FC6020069002208DF81C0003208DF874
:100F00001D0000208DF81E0001208DF81F0006A98D
:100F10002348FFF7A7FB4FF40050069001208DF8FF
:100F20001C0003208DF81D0000208DF81E000120FC
:100F30008DF81F0006A91B48FFF794FB02940020C0
:100F4000ADF80C00ADF80E00ADF81000ADF81400CF
:100F50000C20ADF8120002A9134800F049FB012152
:100F6000114800F0B7FA40210F4800F09BFA012227
:100F700040F225510C4800F016FB26208DF80400A5
:100F800003208DF805008DF8060001208DF807007C
:100F900001A8FFF7BDFE00200449086008B010BD9D
:100FA000000C02400008024000440040A0024342FE
:100FB000704700000CB50020019000903448006894
:100FC00040F480303249086000BF3148006800F4C6
:100FD000003000900198401C0190009818B90198C9
:100FE000B0F5A04FF1D12A48006800F4003010B1EC
:100FF0000120009001E0002000900098012846D1D7
:1010000023484030006840F080502149403108605A
:101010002048006840F440401E4908601C480830E1
:1010200000681B49083108600846006840F4004029
:1010300008600846006840F4A05008601648091F80
:101040000860081F006840F08070091F086000BF3A
:101050000F48006800F000700028F9D040F20570D9
:101060000E4908600A480830006820F0030008496B
:10107000083108600846006840F00200086000BFC0
:1010800003480830006800F00C000828F8D10CBDB7
:10109000003802400070004008544007003C024005
:1010A00010B5002202211148FFF74BFB0022082156
:1010B0000E48FFF746FB012211460C48FFF741FBA3
:1010C000012204210948FFF73CFB0948006800F4AD
:1010D000204048B9002201210448FFF732FB0022DA
:1010E00004210248FFF72DFB10BD0000000C024058
:1010F00010040240042808D14FF0E021096941F0B2
:1011000004014FF0E022116107E04FF0E02109698E
:1011100021F004014FF0E022116170471B48006884
:10112000401C1A4908601A480068401C18490860A9
:1011300018480068032812D317480068401C164955
:10114000086016480068401C1449086000201149D6
:10115000086013480068401C1149086004E00D480D
:101160000068401C0B4908600C480068B0F57A7FA5
:1011700002D300200949086009480068B0F57A7F69
:1011800002D30020064908607047000024000020B8
:10119000200000201C000020640000202800002007
:1011A0001800002010B51548006840F4700013497D
:1011B00008601348006840F00100114908600020F1
:1011C0000F49083108600E4800680E4908400C4974
:1011D00008600D48091D0860081F006820F4802081
:1011E000091F0860002006490C310860FFF7E2FE85
:1011F0004FF0006001498039086010BD88ED00E0C3
:1012000000380240FFFFF6FE1030002410B5012127
:101210001F4800F05AF8012835D11E480068401CCC
:101220001C4908601C480068401C1B4908601B489A
:101230000068032812D31A480068401C1849086047
:1012400018480068401C17490860002013490860CE
:1012500015480068401C1449086004E00F48006805
:10126000401C0E4908600F480068B0F57A7F02D331
:1012700000200C4908600C480068B0F57A7F02D362
:101280000020094908600121014800F00FF810BD55
:101290000004004024000020200000201C0000204A
:1012A000640000202800002018000020CA430282A9
:1012B000704721B1028842F00102028004E00288F6
:1012C0004FF6FE731A400280704730B50246002088
:1012D00000230024158A05EA0103958905EA010423
:1012E00013B10CB1012000E0002030BD1AB1838998
:1012F0000B43838102E083898B4383817047000025
:1013000000220288184B98420ED0184B98420BD0FE
:10131000B0F1804F08D0164B984205D0154B98423B
:1013200002D0154B984204D14FF68F731A404B8868
:101330001A43124B984207D0114B984204D04FF6F3
:10134000FF431A400B891A4302804B68C3620B8823
:101350000385054B984202D0044B984201D18B7A09
:10136000038601238382704700000140000401408E
:101370000004004000080040000C00400010004045
:101380000014004010B540F225511D4800F0E1F86E
:1013900010B31B4800F096F9C4B21A48008800F454
:1013A0000040C8B91748008800F4804060B10A2C9A
:1013B00003D000201349088020E01248008840F440
:1013C00000401049088019E00D2C06D10D48008816
:1013D00040F480400B49088010E00A480088C0F3C0
:1013E0000D0009490C5407480088401C0549088035
:1013F00008460088C72801DD0020088010BD0000D5
:1014000000100140840000208C02002010B540F242
:101410002551214800F09DF800283BD040F225518D
:101420001D4800F048F81C4800F04CF9C4B200BF59
:101430002021194800F080F80128F9D054B3012286
:1014400051031648FFF77DF9012240F22771124837
:1014500000F0A9F812480460002240F227710E48FB
:1014600000F0A1F840210C4800F01CF821460A4881
:1014700000F02DF9642000F0AFF900BF802106488C
:1014800000F05AF80028F9D000224FF40051034828
:10149000FFF757F910BD000000440040000802406B
:1014A0003800002001F40072B2F5007F00D100BFC7
:1014B000CA430280704710B50022002340F66A1428
:1014C000A14200D100BF0A1201249440A3B2DC4320
:1014D000048010BD21B1828942F40052828104E06F
:1014E00082894DF6FF731A40828170471FB54FF411
:1014F000E13000900020ADF80400ADF80600ADF832
:101500000800ADF80C000C20ADF80A006946094847
:1015100000F06EF801210748FFF7DCFF012240F2DE
:101520002551044800F03FF840210248FFF7BAFF78
:101530001FBD00000044004002460020B1F5007FBE
:1015400000D100BF13880B400BB1012000E0002048
:10155000704770B50246002400230025002040F6A5
:101560006A16B14200D100BFC1F3421501F01F035A
:10157000012606FA03F3012D02D19689334006E0D5
:10158000022D02D1168A334001E0968A33400C12B4
:10159000012606FA04F41688344013B10CB1012078
:1015A00000E0002070BDF0B50346002400260025B1
:1015B000002040F66A17B94200D100BF1846C1F3B7
:1015C000421401F01F06012707FA06F5012C01D18C
:1015D0000C3004E0022C01D1103000E014301AB1BC
:1015E00007682F43076002E00768AF430760F0BD5C
:1015F0002DE9FF4705460E460024A14600BFA04640
:10160000B08900B100BF2C8A24F44054F088044310
:101610002C82AC8941F20C608443B0883189084344
:10162000718908430443AC81AC8A24F44074B089C6
:101630000443AC826846FFF7D3FB2048854202D0C2
:101640001F48854202D1DDF80C9001E0DDF80890DA
:10165000A88900F4004040B109EBC90000EB091073
:1016600031684900B0FBF1F707E009EBC90000EB76
:10167000091031688900B0FBF1F76420B7FBF0F086
:1016800004012009642101FB1078A88900F40040BE
:1016900040B1322000EBC800B0FBF1F000F00700D1
:1016A000044308E0322000EB08106421B0FBF1F0A5
:1016B00000F00F0004432C81BDE8FF8700100140BB
:1016C0000014014001468888C0F308007047C1F348
:1016D000080282807047000010B50220134908708C
:1016E0001349087001201349087002200F4908703F
:1016F00011490870FFF7D4FC002010490870104908
:1017000008701049086010200F49086000200F4938
:1017100008600F480F4908600F49086042F21070D6
:101720000E4908600E49086010BD0000440000200A
:10173000450000204100002042000020140000204D
:101740001500002018000020300000203400002088
:1017500040420F004C0000205000002054000020A8
:101760005800002000BFFEE70020014908607047D4
:10177000082C004010B50348007800F005F8FFF78A
:10178000F3FF10BD6800002000F07F01014A1160E6
:1017900070470000002C004000BF704710B50446A1
:1017A0006FF00400FFF7A6FCE11704EB5171C1F3E1
:1017B000C701074A11701046007800EB4001C1EBE9
:1017C000C0104FF6FF7101EAC0000249088010BD49
:1017D0007A0000207C0000200022002106E0002288
:1017E00000E0521CB2F57A7FFBD3491C8142F6D34C
:1017F000704700000146114A12784A434FF0E02337
:101800005A6100229A611A46126942F001021A6175
:1018100000BF4FF0E022106900F001021AB100F49D
:101820008032002AF5D04FF0E022126922F0010246
:101830004FF0E0231A6100229A6170477A0000207D
:1018400000BF4FF4A060FFF79FFAFEF75BFEFFF7C3
:101850004DFEFFF72DFAFFF73FFFFEF779FF4FF43C
:10186000E130FFF731FB1E4800684CF25032B0FB0C
:10187000F2F1481EB0F1807F00D31BE0481E4FF00C
:10188000E022506150170F22002807DA13071D0EBF
:10189000144B00F00F04241F1D5503E013071C0E0A
:1018A000114B1C5400BF00204FF0E0229061072034
:1018B000106100BFA820FFF771FF10E00122510363
:1018C0000A48FEF73EFFFFF713F9FEF705FDFEF7A6
:1018D0008DFDFFF713F800F00BF800F069F8EDE765
:1018E0000000002018ED00E000E400E000100240DD
:1018F000FEB50026002551E000202A4908708DF829
:1019000000008DF80100FF208DF8020004208DF802
:101910000300FC208DF80400D4208DF805004A2037
:101920008DF8060001208DF8070000208DF80800D2
:10193000E1208DF8090000208DF80A009DF80010C4
:101940000B22FFF773F9B420FFF746FF0025154877
:10195000007818B30020134908700B2405E01248E2
:10196000005D2844C5B2601CC4B2172CF7DB684286
:10197000C6B20D48C07DB04210D10B48C07C0B49A7
:1019800008700948007D48700748407D8870064807
:10199000807DC8702820FEF7A5FD00E0ACE700BF01
:1019A000FEBD0000700000209800002072000020A2
:1019B00070B586B0002500260020414908708DF8DA
:1019C00000008DF80100FF208DF802000F208DF837
:1019D0000300F1208DF80400D4208DF8050040208C
:1019E0008DF8060001208DF8070060208DF80800B2
:1019F00003208DF80900FF208DF80A008DF80B00F8
:101A00008DF80C008DF80D008DF80E008DF80F008C
:101A10002C4800788DF810002A4840788DF8110085
:101A2000284880788DF812002648C0788DF8130079
:101A3000052405E01DF804002844C5B2601CC4B2AA
:101A4000142CF7DB6842C0B28DF8140000208DF82A
:101A500015009DF800100B22FFF7E8F8B420FFF7FF
:101A6000BBFE00250B2405E01748005D2844C5B2E5
:101A7000601CC4B20E2CF7DB6842C6B21248807BF1
:101A8000B0421AD11048407BB8B92820FEF72AFD91
:101A90000E48007810B900F01BF80EE00B480078F3
:101AA000012803D1552000F073F806E007480078BC
:101AB000022802D1AA2000F06BF806B070BD000029
:101AC00070000020720000209800002071000020AB
:101AD000FEB5002500260020294908708DF8000079
:101AE0008DF80100FF208DF8020005208DF803001D
:101AF000FB208DF80400D4208DF8050040208DF8DF
:101B0000060001208DF8070030208DF80800022023
:101B10008DF80900B9208DF80A0000208DF80B001F
:101B20009DF800100C22FFF781F8B420FFF754FE57
:101B300000BF0B2405E01348005D2844C5B2601CBB
:101B4000C4B21E2CF7DB6842C6B20E48807FB0429A
:101B500014D10C48807BAA2800D000BF0A48007826
:101B60000A490870084840784870074880788870AB
:101B70000548C078C8702820FEF7B4FCFEBD000000
:101B800070000020980000207200002076000020E5
:101B9000F0B587B006460025002700208DF800002C
:101BA0008DF80100FF208DF8020015208DF803004C
:101BB000EB208DF80400D4208DF8050040208DF82E
:101BC000060001208DF80700A0208DF808000220F3
:101BD0008DF809008DF80A6000208DF80B008DF853
:101BE0000C008DF80D008DF80E008DF80F008DF8AB
:101BF00010008DF811008DF812008DF813008DF88B
:101C000014008DF815008DF816008DF817008DF86A
:101C100018008DF81900052405E01DF8040028447B
:101C2000C5B2601CC4B21A2CF7DB6842C0B28DF892
:101C30001A0000208DF81B009DF800101C22FEF7F2
:101C4000F5FFB420FFF7C8FD00250B2405E0294867
:101C5000005D2844C5B2601CC4B20E2CF7DB68429C
:101C6000C7B22448807BB84242D12820FEF73AFC14
:101C70002148007821490978884201D0012000E0FC
:101C800000201D4949781D4A5278914201D0012116
:101C900000E00021084318498978184A9278914257
:101CA00001D0012100E0002108431349C978134AFB
:101CB000D278914201D0012100E00021084350B1C7
:101CC00008210F48FEF739FD3220FFF785FD082176
:101CD0000B48FEF734FD09480078074908700748AB
:101CE000407848700548807888700448C078C8708B
:101CF00007B0F0BD980000207600002072000020A0
:101D0000000C02404FF04070E1EE100A70470000F6
:101D1000301D00080000002098000000C4010008E9
:101D2000C81D00089800002020090000E0010008FC
:101D3000007A030A00000000000000000102030412
:101D40000607080900000000000000000000000075
:101D50000000000000000000000000000000000083
:101D60000000000000000000000000000000000073
:101D70000000000000000000000000000000000063
:101D80000000000000000000000000000000000053
:101D900000000000000000007F00000000000000C4
:101DA0000000000000000000000000000000000033
:101DB0000000000000000000000001020304010216
:081DC0000304060708090000F6
:040000050800018965
:00000001FF
