:020000040800F2
:1000000098060020290200081D0700083D05000889
:100010004105000847030008650F000800000000C4
:10002000000000000000000000000000B907000808
:100030002D0400080000000035070008D108000862
:10004000430200084302000843020008430200087C
:10005000430200084302000843020008430200086C
:10006000430200084302000843020008430200085C
:10007000430200084302000843020008430200084C
:100080005903000843020008430200084302000825
:10009000430200084302000843020008430200082C
:1000A000430200084302000843020008430200081C
:1000B000430200084302000843020008430200080C
:1000C00043020008430200084302000843020008FC
:1000D00043020008430200084302000843020008EC
:1000E00043020008430200084302000843020008DC
:1000F00043020008430200084302000843020008CC
:1001000043020008430200084302000843020008BB
:1001100043020008430200084302000843020008AB
:10012000430200084302000843020008430200089B
:10013000430200084302000843020008430200088B
:10014000430200084302000843020008430200087B
:10015000430200084302000843020008430200086B
:10016000430200084302000843020008430200085B
:10017000430200084302000843020008430200084B
:10018000430200084302000800F002F800F03CF8C7
:100190000AA090E8000C82448344AAF10107DA45E2
:1001A00001D100F031F8AFF2090EBAE80F0013F0F8
:1001B000010F18BFFB1A43F001031847300E00006F
:1001C000500E0000103A24BF78C878C1FAD8520700
:1001D00024BF30C830C144BF04680C6070470000C1
:1001E0000023002400250026103A28BF78C1FBD840
:1001F000520728BF30C148BF0B6070471FB500F0E1
:10020000EFFE1FBD10B510BD00F063F81146FFF7FB
:10021000F5FF00F0C7FE00F081F803B4FFF7F2FF2E
:1002200003BC00F089F800000948804709480047EE
:10023000FEE7FEE7FEE7FEE7FEE7FEE7FEE7FEE796
:10024000FEE7FEE704480549054A064B70470000F3
:10025000D5080008890100089800002098060020B1
:10026000980200209802002010B5203AC0F00B80C0
:10027000B1E81850203AA0E81850B1E81850A0E8AA
:100280001850BFF4F5AF5FEA027C24BFB1E8185004
:10029000A0E8185044BF18C918C0BDE810405FEA74
:1002A000827C24BF51F8043B40F8043B08BF7047F0
:1002B000D20728BF31F8023B48BF11F8012B28BFF5
:1002C00020F8023B48BF00F8012B70477047704789
:1002D0007047754600F02CF8AE4605006946534657
:1002E00020F00700854618B020B5FFF7ABFFBDE84A
:1002F00020404FF000064FF000074FF000084FF08D
:10030000000B21F00701AC46ACE8C009ACE8C0091D
:10031000ACE8C009ACE8C0098D46704710B504468A
:10032000AFF300802046BDE81040FFF776BF000025
:10033000004870473400002001491820ABBEFEE79A
:1003400026000200704700BFFEE710B54FF4A06022
:1003500000F0E6F910BD000010B50B490B4800F0A5
:1003600033F801280ED10A480069094949698842D1
:1003700004D907480069401E05490861024903483D
:1003800000F008F810BD00000088002088600240DE
:10039000040000200246094B9A4201D2084801E0BD
:1003A0000648103801F000531BB1064B0B40C360E8
:1003B00002E0044B0B408360704700001064024071
:1003C000006002407D0F7D0F70B5024600200024C2
:1003D0000025124EB24201D2114B01E00F4B103BEF
:1003E000104E0E4036B11E2606EAD124166806EAE3
:1003F000040502E0566906F0800501F000560EB1D2
:100400005C6800E01C68084E344004EA010616B13E
:100410000DB1012000E0002070BD0000106402401A
:10042000006002403C0F3C0F7D0F7D0F70470FB402
:1004300010B50446012C06D1BDF81810002203980F
:1004400000F077F807E0022C05D1BDF81810012262
:10045000039800F06EF810BC5DF814FBF0B50A4686
:1004600000210023002400BF3DE0012505FA01F32F
:10047000156805EA03049C4234D105684F00032641
:10048000BE40B543056015794E00B540066835435A
:1004900005601579012D02D01579022D16D18568D8
:1004A0004F000326BE40B543856055794E00B540E8
:1004B000866835438560456801268E40B5434560B2
:1004C000456896798E40B6B235434560C5684F00A1
:1004D0000326BE40B543C560D5794E00B540C66819
:1004E0003543C560491C1029BFD3F0BDF0B50023CA
:1004F00000244D07ED0E02FA05F3CE1000F12005A1
:1005000055F826504E07F70E0F26BE40B543CF10C4
:1005100000F1200646F82750CE1000F1200555F8CE
:10052000265045EA0304CE1000F1200545F8264088
:10053000F0BD0AB1018300E04183704700BFFEE7D0
:1005400000BFFEE70FB41CB542490498884204D1AD
:100550000121084600F0F0F858E03F49049888422D
:1005600004D10121022000F0E7F84FE03B49049854
:10057000884204D10121042000F0DEF846E0384929
:100580000498884204D10121082000F0D5F83DE00C
:1005900034490498884204D10121102000F0CCF89D
:1005A00034E031490498884204D10121202000F030
:1005B000C3F82BE02D490498884204D10121402042
:1005C00000F0BAF822E02A490498884204D10121B7
:1005D000802000F0B1F819E026490498884204D13F
:1005E0000121801500F0A8F810E023490498884202
:1005F00004D10121401500F09FF807E01F4904983D
:10060000884203D10121001500F096F8BDF81C00C6
:10061000009001208DF8040000208DF806000320D2
:100620008DF8050001208DF8070069460498FFF752
:1006300015FF02208DF80500BDF820000090002075
:100640008DF8040069460698FFF708FF1CBC5DF8AA
:1006500014FB0000000002400004024000080240B9
:10066000000C02400010024000140240001802403A
:10067000001C0240002002400024024000280240EA
:1006800008B58020134908604FF46C504860002082
:1006900088600873487340F2992008610E484861E9
:1006A00040F24D1088610D490A4801620C48094921
:1006B000C8610A4907484162012101854185042139
:1006C0008185C06A009003481C300FC8FFF73AFFCD
:1006D00008BD000004000020A086010000000240C8
:1006E000001002400FB41CB59DF81C00012810D169
:1006F000DDE90E01CDE900019DF81C000BA90EC932
:10070000FFF795FE00F01AF900BF0348007B0028B0
:10071000FBD11CBC5DF814FB0400002070470000F6
:1007200002490143024A1160704700000000FA05C7
:100730000CED00E07047000029B1064A1268024340
:10074000044B1A6004E0034A12688243014B1A60AA
:10075000704700003038024029B1064A126802434F
:10076000044B1A6004E0034A12688243014B1A608A
:10077000704700004038024029B1064A126802431F
:10078000044B1A6004E0034A12688243014B1A606A
:10079000704700002038024029B1064A126802431F
:1007A000044B1A6004E0034A12688243014B1A604A
:1007B0007047000024380240704700000CB500204C
:1007C000019000903448006840F48030324908605D
:1007D00000BF3148006800F4003000900198401CD0
:1007E0000190009818B90198B0F5A04FF1D12A48AE
:1007F000006800F4003010B10120009001E00020FA
:1008000000900098012846D123484030006840F00D
:1008100080502149403108602048006840F4404041
:100820001E4908601C48083000681B4908310860F0
:100830000846006840F4004008600846006840F43C
:10084000A05008601648091F0860081F006840F0A3
:100850008070091F086000BF0F48006800F000703A
:100860000028F9D040F205700E4908600A480830A7
:10087000006820F003000849083108600846006855
:1008800040F00200086000BF03480830006800F034
:100890000C000828F8D10CBD003802400070004060
:1008A00008544007003C0240042808D14FF0E021E2
:1008B000096941F004014FF0E022116107E04FF0B7
:1008C000E021096921F004014FF0E0221161704735
:1008D0007047000010B51548006840F470001349D7
:1008E00008601348006840F00100114908600020CA
:1008F0000F49083108600E4800680E4908400C494D
:1009000008600D48091D0860081F006820F4802059
:10091000091F0860002006490C310860FFF74EFFF0
:100920004FF0006001498039086010BD88ED00E09B
:1009300000380240FFFFF6FE1030002410B54FF0E3
:100940008040008C40F002004FF08041088401217B
:10095000880700F0A9F910BD00B589B04FF08040BC
:1009600000F0AEF901210846FFF7F6FE1B480069CA
:1009700007900020ADF81800ADF82000ADF81A007F
:1009800006A94FF0804000F0ABFA6020ADF80400FB
:100990000120ADF806001148806903900020ADF8F1
:1009A000100001A94FF0804000F052FA0821C8065B
:1009B00000F08CFA00214FF0804000F069F94FF010
:1009C0008040008C40F002004FF0804108840021FC
:1009D0004FF0804000F068F909B000BD040000202D
:1009E00010B500F003F8FFF7B7FF10BD1CB59C4829
:1009F000006A9C49884204D101210846FFF79CFE09
:100A000062E09748006A9849884204D10121022097
:100A1000FFF792FE58E09248006A9449884204D158
:100A200001210420FFF788FE4EE08D48006A9049BE
:100A3000884204D101210820FFF77EFE44E0884867
:100A4000006A8C49884204D101211020FFF774FE0E
:100A50003AE08348006A8849884204D10121202075
:100A6000FFF76AFE30E07E48006A8449884204D17C
:100A700001214020FFF760FE26E07948006A8049A6
:100A8000884204D101218020FFF756FE1CE0744803
:100A9000006A7C49884204D101218015FFF74CFE91
:100AA00012E06F48006A7849884204D1012140155C
:100AB000FFF742FE08E06A48006A7449884203D1A1
:100AC00001210015FFF738FE6548408D0090022097
:100AD0008DF8040003208DF8050000208DF8060035
:100AE00001208DF807005E49086A6946FFF7B6FCE9
:100AF0005B48408D012806D159490122086A00212E
:100B0000FFF7F4FCABE05648408D022806D154496B
:100B10000122086A1146FFF7E9FCA0E05048408D29
:100B2000042806D14E490122086A0221FFF7DEFCA3
:100B300095E04B48408D082806D149490122086AB2
:100B40000321FFF7D3FC8AE04548408D102806D1E9
:100B500043490122086A0421FFF7C8FC7FE04048AE
:100B6000408D202806D13E490122086A0521FFF761
:100B7000BDFC74E03A48408D402806D13849012236
:100B8000086A0621FFF7B2FC69E03548408D8028ED
:100B900006D133490122086A0721FFF7A7FC5EE06E
:100BA0002F48408DB0F5807F06D12D490122086A7B
:100BB0000821FFF79BFC52E02948408DB0F5007FEB
:100BC00006D127490122086A0921FFF78FFC46E078
:100BD0002348408DB0F5806F06D121490122086A73
:100BE0000A21FFF783FC3AE01D48408DB0F5006F05
:100BF00006D11B490122086A0B21FFF777FC2EE082
:100C00001748408DB0F5805F06D115490122086A6A
:100C10000C21FFF76BFC22E01148408DB0F5005F1E
:100C200006D10F490122086A0D21FFF75FFC16E08B
:100C30000B48408DB0F5804F06D109490122086A62
:100C40000E21FFF753FC0AE00548408DB0F5004F38
:100C500005D103490122086A0F21FFF747FC1CBD9B
:100C6000040000200000024000040240000802408E
:100C7000000C024000100240001402400018024024
:100C8000001C0240002002400024024000280240D4
:100C900021B1028842F08002028004E002884FF60F
:100CA0007F731A400280704721B1028842F001022E
:100CB000028004E002884FF6FE731A4002807047FB
:100CC00010B504465548844208D101210846FFF773
:100CD00063FD00210120FFF75FFD9DE0B4F1804F2F
:100CE00008D101210846FFF747FD00210120FFF749
:100CF00043FD91E04A48844208D101210220FFF7D8
:100D00003BFD00210220FFF737FD85E04548844286
:100D100008D101210420FFF72FFD00210420FFF757
:100D20002BFD79E04048844208D101210820FFF7DB
:100D300023FD00210820FFF71FFD6DE03B488442A2
:100D400008D101211020FFF717FD00211020FFF727
:100D500013FD61E03648844208D101212020FFF7CD
:100D60000BFD00212020FFF707FD55E031488442AC
:100D700008D101210220FFF70FFD00210220FFF71B
:100D80000BFD49E02C48844209D101210804FFF7FA
:100D900003FD00214FF48030FFF7FEFC3CE02748C4
:100DA000844209D101214804FFF7F6FC00214FF4E9
:100DB0000030FFF7F1FC2FE02148844209D10121E6
:100DC0008804FFF7E9FC00214FF48020FFF7E4FCE2
:100DD00022E01C48844208D101214020FFF7CCFCCE
:100DE00000214020FFF7C8FC16E01748844208D1D4
:100DF00001218020FFF7C0FC00218020FFF7BCFC10
:100E00000AE01248844207D101218015FFF7B4FCA3
:100E10000021A015FFF7B0FC10BD0000000001404C
:100E20000004004000080040000C0040001000409A
:100E30000014004000040140004001400044014013
:100E40000048014000180040001C00400020004005
:100E500070B5002400220023058C4FF6FE76354045
:100E60000584028C8388048B4FF68F752C40B51E49
:100E70002C400D882C43751E2A408D892A434D88AD
:100E80002A43104DA84202D00F4DA84213D14FF66D
:100E9000F7752A40CD892A434FF6FB752A408D8885
:100EA0002A434FF6FF652B404FF6FF552B400D8A26
:100EB0002B434D8A2B43838004838D6845630284D2
:100EC00070BD000000000140000401400A460021FE
:100ED000018B4FF6F77319401143018370470000EF
:100EE00000220288184B98420ED0184B98420BD023
:100EF000B0F1804F08D0164B984205D0154B984260
:100F000002D0154B984204D14FF68F731A404B888C
:100F10001A43124B984207D0114B984204D04FF617
:100F2000FF431A400B891A4302804B68C3620B8847
:100F30000385054B984202D0044B984201D18B7A2D
:100F400003860123838270470000014000040140B2
:100F50000004004000080040000C00400010004069
:100F60000014004000BFFEE710B504466FF0040017
:100F7000FFF79AFCE11704EB5171C1F3C701074A6F
:100F800011701046007800EB4001C1EBC0104FF625
:100F9000FF7101EAC0000249088010BD0000002076
:100FA0000200002000B589B0FFF7CFF9A820FFF7B5
:100FB000DBFFFFF765FBFFF713FD0120074908730F
:100FC0004873202210316846FFF74EF903480FC8D6
:100FD000FFF788FB002009B000BD000004000020DE
:100FE0004FF04070E1EE100A704700000C1000084E
:100FF0000000002004000000C401000810100008D8
:101000000400002094060000E00100080000000039
:040000050800018965
:00000001FF
