:020000040800F2
:100000008806002029020008750700080D04000872
:1000100011040008E30200089D0C00080000000025
:10002000000000000000000000000000210900089E
:100030004903000800000000B9080008390A000858
:10004000430200084302000843020008430200087C
:10005000430200084302000843020008430200086C
:10006000430200084302000843020008430200085C
:10007000430200084302000843020008430200084C
:10008000430200084302000843020008430200083C
:10009000430200084302000843020008430200082C
:1000A000430200084302000843020008430200081C
:1000B000BD0A0008F50A00084302000843020008D0
:1000C00043020008430200084302000843020008FC
:1000D00043020008430200084302000843020008EC
:1000E00043020008430200084302000843020008DC
:1000F00043020008430200084302000843020008CC
:1001000043020008430200084302000843020008BB
:1001100043020008430200084302000843020008AB
:10012000430200084302000843020008430200089B
:10013000430200084302000843020008430200088B
:10014000430200084302000843020008430200087B
:10015000430200084302000843020008430200086B
:10016000430200084302000843020008430200085B
:10017000430200084302000843020008430200084B
:10018000430200084302000800F002F800F03CF8C7
:100190000AA090E8000C82448344AAF10107DA45E2
:1001A00001D100F031F8AFF2090EBAE80F0013F0F8
:1001B000010F18BFFB1A43F001031847800B000022
:1001C000A00B0000103A24BF78C878C1FAD85207B3
:1001D00024BF30C830C144BF04680C6070470000C1
:1001E0000023002400250026103A28BF78C1FBD840
:1001F000520728BF30C148BF0B6070471FB500F0E1
:1002000097FD1FBD10B510BD00F031F81146FFF786
:10021000F5FF00F063FD00F04FF803B4FFF7F2FFC5
:1002200003BC00F057F80000094880470948004720
:10023000FEE7FEE7FEE7FEE7FEE7FEE7FEE7FEE796
:10024000FEE7FEE704480549054A064B70470000F3
:10025000550A00088901000888000020880600204F
:10026000880200208802002070477047704775465A
:1002700000F02CF8AE4605006946534620F0070012
:10028000854618B020B5FFF7DDFFBDE820404FF0F0
:1002900000064FF000074FF000084FF0000B21F070
:1002A0000701AC46ACE8C009ACE8C009ACE8C0093D
:1002B000ACE8C0098D46704710B50446AFF3008026
:1002C0002046BDE81040FFF7A8BF00000048704777
:1002D0002800002001491820ABBEFEE726000200DE
:1002E000704700BFFEE7000070B54FF4A06000F05B
:1002F000D9FA00F041FA1149481EB0F1807F00D3CD
:100300001BE0481E4FF0E022506150170F220028DA
:1003100007DA13071D0E0A4B00F00F04241F1D55AA
:1003200003E013071C0E074B1C5400BF00204FF0C6
:10033000E02290610320106100BF70BD80A219000F
:1003400018ED00E000E400E0704737B50446012CEA
:1003500006D19DF808100022019800F052F807E03D
:10036000022C05D19DF808100122019800F049F8EF
:100370003EBDF0B50A4600210023002400BF3DE049
:10038000012505FA01F3156805EA03049C4234D1FE
:1003900005684F000326BE40B543056015794E0041
:1003A000B5400668354305601579012D02D01579F1
:1003B000022D16D185684F000326BE40B5438560E7
:1003C00055794E00B54086683543856045680126FD
:1003D0008E40B5434560456896798E40B6B2354348
:1003E0004560C5684F000326BE40B543C560D5795A
:1003F0004E00B540C6683543C560491C1029BFD3BF
:10040000F0BD0AB1018300E04183704700BFFEE701
:1004100000BFFEE703B583B043490398884204D187
:100420000121084600F05CFA58E0404903988842F0
:1004300004D10121022000F053FA4FE03C49039817
:10044000884204D10121042000F04AFA46E03949EB
:100450000398884204D10121082000F041FA3DE0D0
:1004600035490398884204D10121102000F038FA60
:1004700034E032490398884204D10121202000F061
:100480002FFA2BE02E490398884204D10121402005
:1004900000F026FA22E02B490398884204D101217A
:1004A000802000F01DFA19E027490398884204D102
:1004B0000121801500F014FA10E0244903988842C5
:1004C00004D10121401500F00BFA07E02049039800
:1004D000884203D10121001500F002FA9DF81000B6
:1004E0009DF811100843019001208DF808000020AC
:1004F0008DF80A0003208DF8090001208DF80B000B
:1005000001A90398FFF735FF02208DF809009DF837
:100510001200019000208DF8080001A90398FFF750
:1005200028FF05B000BD00000000024000040240AA
:1005300000080240000C024000100240001402407B
:1005400000180240001C024000200240002402402B
:100550000028024010B580200E4908604FF46C500E
:100560004860002088600873487388734FF4FA600D
:100570000861002048610848886101210548017729
:100580000221417704218177C1698069FFF742FF29
:1005900010BD000008000020001002400FB410B58C
:1005A0009DF81400012835D19DF81400DDE90812EA
:1005B000FFF7CBFE9DF8160000EBD0714910A0EBC1
:1005C0004101012905D10120DDE9081200F075F98A
:1005D00015E09DF8160000EBD0714910A0EB410129
:1005E00069B90899496901F00201022907D100207F
:1005F000DDE9081200F061F90498401C04900898A5
:10060000006900F0040008990861002801D18DF804
:100610001400ACE09DF8140002283AD19DF81400B3
:10062000DDE90812FFF791FE9DF8160000EBD0718E
:100630004910A0EB4101012905D10120DDE9081293
:1006400000F03BF91AE09DF8160000EBD07149105C
:10065000A0EB410191B90899496901F00201022911
:100660000CD10020DDE9081200F027F9049818B138
:100670000498401E049001E000200490089800694E
:1006800000F0040008990861002870D18DF814006A
:100690006DE09DF81500012835D19DF81400DDE9C5
:1006A0000812FFF752FE9DF8160000EBD0714910BA
:1006B000A0EB4101012905D10120DDE9081200F07C
:1006C000FCF815E09DF8160000EBD0714910A0EB86
:1006D000410169B90899496901F00201022907D16C
:1006E0000020DDE9081200F0E8F80498401C0490AE
:1006F0000898006900F0040008990861A0BB002078
:100700008DF8140033E09DF8150002282FD19DF8D4
:100710001400DDE90812FFF718FE9DF8160000EB43
:10072000D0714910A0EB4101012905D10120DDE97B
:10073000081200F0C2F81AE09DF8160000EBD07124
:100740004910A0EB410179B90899496901F002010A
:1007500002290CD10020DDE9081200F0AEF804985F
:1007600018B10498401E049001E00020049010BCD1
:100770005DF814FB704700001FB50121084600F02A
:10078000BFF8092002900820ADF804000020ADF861
:100790000600ADF80C0001A94FF0804000F03CFAD3
:1007A00001221146900700F02DFA0121880700F080
:1007B0000CFA1C208DF8000001208DF801000220A9
:1007C0008DF8020001208DF80300684600F02EF835
:1007D0000121022000F094F8312002900820ADF8A9
:1007E00004000020ADF80600ADF80C0001A90E4889
:1007F00000F012FA012211460B4800F003FA012121
:10080000094800F0E2F91D208DF8000001208DF864
:10081000010000208DF8020001208DF803006846D9
:1008200000F004F81FBD00000004004070B5002176
:1008300000230F22C4781CB3174C246804F4E0642E
:10084000C4F5E064C4F30721C1F10404E3B20A4132
:1008500044789C40E1B28478144021430C07210E77
:100860000E4C05786155047804F01F050124AC4056
:1008700005786D11AD0005F1E025C5F8004109E0EE
:10088000047804F01F050124AC40054D067876116C
:1008900045F8264070BD00000CED00E000E400E0EB
:1008A00080E100E002490143024A11607047000004
:1008B0000000FA050CED00E0704737B50446012C46
:1008C00006D19DF8091001220198FFF79AFD06E074
:1008D0002CB99DF8091000220198FFF792FD3EBD4A
:1008E00029B1064A12680243044B1A6004E0034A25
:1008F00012688243014B1A60704700003038024092
:1009000029B1064A12680243044B1A6004E0034A04
:1009100012688243014B1A60704700004038024061
:10092000704700000CB5002001900090344800682A
:1009300040F480303249086000BF3148006800F45C
:10094000003000900198401C0190009818B901985F
:10095000B0F5A04FF1D12A48006800F4003010B182
:100960000120009001E0002000900098012846D16D
:1009700023484030006840F08050214940310860F1
:100980002048006840F440401E4908601C48083078
:1009900000681B49083108600846006840F40040C0
:1009A00008600846006840F4A05008601648091F17
:1009B0000860081F006840F08070091F086000BFD1
:1009C0000F48006800F000700028F9D040F2057070
:1009D0000E4908600A480830006820F00300084902
:1009E000083108600846006840F00200086000BF57
:1009F00003480830006800F00C000828F8D10CBD4E
:100A0000003802400070004008544007003C02409B
:100A1000042808D14FF0E021096941F004014FF0AA
:100A2000E022116107E04FF0E021096921F00401A3
:100A30004FF0E0221161704704480069142804D186
:100A400003480068401C0249086070470800002005
:100A50000000002010B51548006840F470001349EC
:100A600008601348006840F0010011490860002048
:100A70000F49083108600E4800680E4908400C49CB
:100A800008600D48091D0860081F006820F48020D8
:100A9000091F0860002006490C310860FFF742FF7B
:100AA0004FF0006001498039086010BD88ED00E01A
:100AB00000380240FFFFF6FE1030002410B501217F
:100AC000880700F08EF801280CD1094840690849D0
:100AD0000969884203D800200549887302E0012093
:100AE000034988730121880700F06CF810BD0000ED
:100AF0000800002010B50121304800F072F80128EC
:100B000056D12F48007B38B32D4840692C490969DC
:100B10004900884205D22A484069401C284948615A
:100B200046E02748406926490969490088423FD183
:100B300000202349486108460069142804D9084662
:100B40000069401E086133E01D48006914282FD851
:100B500014201B4908612BE01948406918490969AC
:100B60004900884205D216484069401C1449486132
:100B70001EE013484069124909694900884217D1AB
:100B800000200F49486108460069B0F5FA6F04D2A9
:100B900008460069401C08610AE009480069B0F590
:100BA000FA6F05D34FF4FA600549086100204873D5
:100BB0000121024800F006F810BD000000040040CA
:100BC00008000020CA430282704721B1028842F027
:100BD0000102028004E002884FF6FE731A40028090
:100BE000704730B50246002000230024158A05EA2C
:100BF0000103958905EA010413B10CB1012000E05D
:100C0000002030BD1AB183890B43838102E08389C0
:100C10008B4383817047000000220288184B984262
:100C20000ED0184B98420BD0B0F1804F08D0164B25
:100C3000984205D0154B984202D0154B984204D1EA
:100C40004FF68F731A404B881A43124B984207D0C5
:100C5000114B984204D04FF6FF431A400B891A43B8
:100C600002804B68C3620B880385054B984202D013
:100C7000044B984201D18B7A03860123838270470B
:100C80000000014000040140000400400008004052
:100C9000000C0040001000400014004000BFFEE7C0
:100CA00010B504466FF00400FFF7B2FEE11704EB45
:100CB0005171C1F3C701074A11701046007800EB6B
:100CC0004001C1EBC0104FF6FF7101EAC0000249BC
:100CD000088010BD04000020060000201FB5FFF7AB
:100CE00003FBA820FFF7DCFFFFF734FC02200E49CE
:100CF0000873487300200D49086013E00A4B103355
:100D00000FCB8DE80F0008480FC8FFF747FC0648D7
:100D10000069142806D105480068642802D1002023
:100D200001490873EAE700000800002000000020E5
:100D30004FF04070E1EE100A704700005C0D0008B3
:100D40000000002008000000C4010008640D000835
:100D50000800002080060000E001000800000000FC
:040D6000000000008F
:040000050800018965
:00000001FF
