:020000040800F2
:100000001807002029020008290700082107000816
:100010002507000855040008D51500080000000059
:10002000000000000000000000000000690B000854
:10003000CD04000800000000AD080008810C000895
:10004000E5150008430200084302000843020008C7
:10005000430200084302000843020008430200086C
:10006000430200084302000843020008430200085C
:10007000430200084302000843020008430200084C
:10008000430200084302000843020008430200083C
:10009000430200084302000843020008430200082C
:1000A000430200084302000843020008430200081C
:1000B000BD0D0008C10D00084302000843020008FE
:1000C00043020008430200084302000843020008FC
:1000D00043020008151200084912000843020008F4
:1000E00043020008430200084302000843020008DC
:1000F00043020008430200084302000843020008CC
:1001000043020008430200084302000843020008BB
:1001100043020008430200084302000843020008AB
:10012000430200084302000843020008430200089B
:10013000430200084302000843020008430200088B
:10014000430200084302000843020008430200087B
:10015000430200084302000843020008430200086B
:10016000430200084302000843020008430200085B
:10017000430200084302000843020008430200084B
:10018000430200084302000800F002F800F03CF8C7
:100190000AA090E8000C82448344AAF10107DA45E2
:1001A00001D100F031F8AFF2090EBAE80F0013F0F8
:1001B000010F18BFFB1A43F0010318471C1500007C
:1001C0003C150000103A24BF78C878C1FAD852070D
:1001D00024BF30C830C144BF04680C6070470000C1
:1001E0000023002400250026103A28BF78C1FBD840
:1001F000520728BF30C148BF0B6070471FB501F0E0
:1002000066FA1FBD10B510BD00F031F81146FFF7BA
:10021000F5FF01F04BFA00F04FF803B4FFF7F2FFDF
:1002200003BC00F057F80000094880470948004720
:10023000FEE7FEE7FEE7FEE7FEE7FEE7FEE7FEE796
:10024000FEE7FEE704480549054A064B70470000F3
:10025000550D00088901000818010020180700202A
:100260001803002018030020704770477047754638
:1002700000F02CF8AE4605006946534620F0070012
:10028000854618B020B5FFF7DDFFBDE820404FF0F0
:1002900000064FF000074FF000084FF0000B21F070
:1002A0000701AC46ACE8C009ACE8C009ACE8C0093D
:1002B000ACE8C0098D46704710B50446AFF3008026
:1002C0002046BDE81040FFF7A8BF00000048704777
:1002D000B400002001491820ABBEFEE72600020052
:1002E0007047000000B58BB00121080200F000FB50
:1002F00000214FF4807000F00BFB002007900A9063
:1003000009904FF48030089007A800F023F80020EF
:1003100001908DF808008DF80900039005900120E8
:100320008DF8180001A9044800F02CF801210248BA
:1003300000F004F80BB000BD0020014021B182683C
:1003400042F00102826003E0826822F001028260D2
:10035000704700000021084A1168084A1140D0E99E
:1003600000231A4383681A43C3681A431143044A9B
:10037000C2F804137047000004230140E030FCFF82
:100380000020014030B50246002000235068104C88
:1003900020400D790C6844EA0524204350609068A1
:1003A0000C4C2040D1E903542C438D682C434D79EB
:1003B00044EA450420439060D06A20F470000C7D2C
:1003C000641EE4B2234340EA0350D06230BD000013
:1003D000FFFEFFFCFDF7FFC010B5012240211948C8
:1003E00000F099F91848007800F0010048B117486A
:1003F000006801F035F901228021124800F08BF9E4
:100400001FE01148007800F00100D0B90D484069A4
:1004100000F08000802814D10C48006801F020F919
:1004200000228021074800F076F90948006828B1C9
:1004300007480068401E0649086002E000200449A1
:10044000086010BD001002401C00002014000020B5
:100450006C00002000BFFEE770B54FF4A06000F014
:100460001BFA00F041F8FFF73DFF00F05FF9134879
:100470000068134AB0FBF2F1481EB0F1807F00D350
:100480001BE0481E4FF0E022506150170F22002859
:1004900007DA13071D0E0B4B00F00F04241F1D5528
:1004A00003E013071C0E084B1C5400BF00204FF044
:1004B000E02290610320106100BF70BD8C0000201D
:1004C000A086010018ED00E000E400E070470000A5
:1004D000044A116800E000BF024A1268521A8242C0
:1004E000F9D37047840000201CB501211F2000F0C3
:1004F000DFF902208DF805000F20009002208DF812
:1005000004006946494800F09BF8F0200090002064
:100510008DF804006946454800F092F802208DF8F5
:1005200005004FF4F850009002208DF80400694651
:100530003E4800F085F84FF22700009000208DF82B
:10054000040069463A4800F07BF8C0200090022081
:100550008DF804008DF805006946354800F070F804
:100560004FF44070009001208DF8040000208DF8B9
:10057000060003208DF8050001208DF8070069466C
:100580002B4800F05DF802208DF805003F20009018
:1005900003208DF8040000208DF8070069462548E7
:1005A00000F04EF84FF4FE50009000208DF804004B
:1005B0006946204800F044F84FF4005000900120B4
:1005C0008DF8040003208DF8050000208DF806004A
:1005D00001208DF807006946164800F031F84FF603
:1005E000FF70009001208DF8040000208DF80600B7
:1005F00003208DF8050001208DF8070069460E489C
:1006000000F01EF840F2FF30009001208DF8040049
:1006100000208DF8060003208DF8050001208DF8DC
:1006200007006946054800F00BF81CBD00000240B9
:100630000004024000080240000C0240001002408A
:10064000F0B50A4600210023002400BF3DE001254B
:1006500005FA01F3156805EA03049C4234D10568E4
:100660004F000326BE40B543056015794E00B540E6
:100670000668354305601579012D02D01579022DE4
:1006800016D185684F000326BE40B5438560557975
:100690004E00B540866835438560456801268E402A
:1006A000B5434560456896798E40B6B2354345609E
:1006B000C5684F000326BE40B543C560D5794E00DE
:1006C000B540C6683543C560491C1029BFD3F0BD8D
:1006D000F0B5002300244D07ED0E02FA05F3CE100D
:1006E00000F1200555F826504E07F70E0F26BE40A4
:1006F000B543CF1000F1200646F82750CE1000F188
:10070000200555F8265045EA0304CE1000F12005D7
:1007100045F82640F0BD0AB1018300E041837047EF
:1007200000BFFEE700BFFEE7704700001FB50121D4
:10073000022000F0CDF841F28730029042F2CF0063
:10074000ADF804000020ADF80600ADF80C0001A9DA
:10075000324800F0B5FB01221146304800F0A6FBFC
:1007600001212E4800F085FB0121084600F0B0F879
:1007700040F2E730029042F2CF00ADF804000020D2
:10078000ADF80600ADF80C0001A94FF0804000F074
:1007900097FB01221146900700F088FB0121880792
:1007A00000F067FB1D208DF8000001208DF801008E
:1007B00003208DF8020001208DF80300684600F048
:1007C0002FF81C208DF8000001208DF80100022078
:1007D0008DF8020001208DF80300684600F020F833
:1007E00026208DF8000003208DF801008DF802000E
:1007F00001208DF80300684600F012F825208DF8DE
:10080000000002208DF8010003208DF80200012075
:100810008DF80300684600F003F81FBD0004004097
:1008200070B5002100230F22C4781CB3174C246834
:1008300004F4E064C4F5E064C4F30721C1F10404E6
:10084000E3B20A4144789C40E1B2847814402143E9
:100850000C07210E0E4C05786155047804F01F0535
:100860000124AC4005786D11AD0005F1E025C5F817
:10087000004109E0047804F01F050124AC40054D57
:100880000678761145F8264070BD00000CED00E0BA
:1008900000E400E080E100E002490143024A116007
:1008A000704700000000FA050CED00E07047000002
:1008B00029B1064A12680243044B1A6004E0034A55
:1008C00012688243014B1A607047000030380240C2
:1008D00029B1064A12680243044B1A6004E0034A35
:1008E00012688243014B1A60704700004038024092
:1008F00029B1064A12680243044B1A6004E0034A15
:1009000012688243014B1A6070470000443802406D
:1009100029B1064A12680243044B1A6004E0034AF4
:1009200012688243014B1A6070470000243802406D
:10093000F0B5002100220024022500260223324FB8
:100940003F6807F00C0121B1042905D0082937D1EF
:1009500005E02E4F076036E02D4F076033E02A4F49
:100960003F1F3F68C7F38056274F3F1F3F6807F080
:100970003F036EB1264FB7FBF3F7DFF88CC0ACF145
:10098000040CDCF800C0CCF3881C07FB0CF40CE072
:100990001E4FB7FBF3F7DFF870C0ACF1040CDCF8C6
:1009A00000C0CCF3881C07FB0CF4174F3F1F3F68B7
:1009B000C7F301477F1C7D00B4FBF5F7076002E039
:1009C000124F076000BF00BF0F4F3F6807F0F001F4
:1009D0000909104F7A5C0768D74047600A4F3F68A3
:1009E00007F4E051890A0B4F7A5C4768D74087606B
:1009F000054F3F6807F46041490B064F7A5C476832
:100A0000D740C760F0BD0000083802400024F40061
:100A100000127A00A400002010B588B0044601211D
:100A20004804FFF755FF072205214B48FFF750FE0A
:100A3000072206214848FFF74BFE6020069002205F
:100A40008DF81C0003208DF81D0000208DF81E007D
:100A500001208DF81F0006A93F48FFF7F1FD029421
:100A60000020ADF80C00ADF80E00ADF81000ADF8A8
:100A700014000C20ADF8120002A9384800F0B0FCB8
:100A80000121364800F044FC4021344800F028FCA5
:100A9000012240F22551314800F07DFC26208DF8DE
:100AA000040003208DF805008DF8060001208DF864
:100AB000070001A8FFF7B4FE01211020FFF718FF7F
:100AC000072206212648FFF703FE07221146244885
:100AD000FFF7FEFDC020069002208DF81C000320C9
:100AE0008DF81D0000208DF81E0001208DF81F00DC
:100AF00006A91B48FFF7A4FD02940020ADF80C00E6
:100B0000ADF80E00ADF81000ADF814000C20ADF8F3
:100B1000120002A9134800F063FC0121114800F003
:100B2000F7FB40210F4800F0DBFB012240F225518A
:100B30000C4800F030FC25208DF8040002208DF8D0
:100B4000050003208DF8060001208DF8070001A89C
:100B5000FFF766FE08B010BD000C024000440040E4
:100B60000004024000100140704700000CB5002056
:100B7000019000903448006840F4803032490860A9
:100B800000BF3148006800F4003000900198401C1C
:100B90000190009818B90198B0F5A04FF1D12A48FA
:100BA000006800F4003010B10120009001E0002046
:100BB00000900098012846D123484030006840F05A
:100BC00080502149403108602048006840F440408E
:100BD0001E4908601C48083000681B49083108603D
:100BE0000846006840F4004008600846006840F489
:100BF000A05008601648091F0860081F006840F0F0
:100C00008070091F086000BF0F48006800F0007086
:100C10000028F9D040F205700E4908600A480830F3
:100C2000006820F0030008490831086008460068A1
:100C300040F00200086000BF03480830006800F080
:100C40000C000828F8D10CBD0038024000700040AC
:100C500008544007003C0240042808D14FF0E0212E
:100C6000096941F004014FF0E022116107E04FF003
:100C7000E021096921F004014FF0E0221161704781
:100C80002A480068401C2949086029480068401C1F
:100C90002749086027480068401C26490860264804
:100CA000007802280BD100202349087023480068EF
:100CB000322804D921480068401F20490860204894
:100CC000006805281BD31F480068401C1D490860A8
:100CD0001D480068401C1C49086000201849086035
:100CE0001A480068401C1949086019480068401CEF
:100CF0001749086008460068401C086004E0104876
:100D00000068401C0E4908600F480068B0F57A7F03
:100D100002D300200C4908600C48006840F6B83146
:100D2000884202D300200949086070471C00002057
:100D30002C000020300000201800002014000020AB
:100D40001000002084000020240000200400002067
:100D50000C00002010B51548006840F470001349DD
:100D600008601348006840F0010011490860002045
:100D70000F49083108600E4800680E4908400C49C8
:100D800008600D48091D0860081F006820F48020D5
:100D9000091F0860002006490C310860FFF7E6FED5
:100DA0004FF0006001498039086010BD88ED00E017
:100DB00000380240FFFFF6FE1030002470470000AC
:100DC00010B50121224800F060F801283AD12148ED
:100DD0000068401C1F4908601F480078022804DA98
:100DE0001D480078401C1C4908701C4800680328F6
:100DF00012D31B480068401C194908601948006854
:100E0000401C184908600020144908601648006812
:100E1000401C1549086004E010480068401C0F4958
:100E2000086010480068B0F57A7F02D300200D49B1
:100E300008600D48006840F6B831884202D30020AF
:100E4000094908600121024800F010F810BD0000B7
:100E500000040040200000201800002010000020A6
:100E6000840000202400002004000020CA430282E5
:100E7000704721B1028842F00102028004E002883A
:100E80004FF6FE731A400280704730B502460020CC
:100E900000230024158A05EA0103958905EA010467
:100EA00013B10CB1012000E0002030BD1AB18389DC
:100EB0000B43838102E083898B4383817047000069
:100EC00000220288184B98420ED0184B98420BD043
:100ED000B0F1804F08D0164B984205D0154B984280
:100EE00002D0154B984204D14FF68F731A404B88AD
:100EF0001A43124B984207D0114B984204D04FF638
:100F0000FF431A400B891A4302804B68C3620B8867
:100F10000385054B984202D0044B984201D18B7A4D
:100F200003860123838270470000014000040140D2
:100F30000004004000080040000C00400010004089
:100F40000014004010B5A448006830382B2870D237
:100F5000DFE800F0166F6F6F6F7E676F6F6F6F6FF8
:100F60006F6F6F6F6F70778B8F9397A0A4ABC2D7A3
:100F7000DBDFE3F1FAEEED6FEC6FEB6FEA50390077
:100F8000012251039548FFF7C6FB4021944800F029
:100F9000A7F99448008881B2914800F090FA642043
:100FA00000F050FB00BF80218D4800F0BDF9002803
:100FB000F9D000224FF400518848FFF7ACFB002025
:100FC0008549086006E1002202218748FFF7A3FB5C
:100FD000002208218448FFF79EFB4FF47A70FFF748
:100FE00077FA0120814908708149087000207A4908
:100FF0000860EFE0002201217B48FFF78CFB002214
:1010000004217948FFF787FB4FF47A70FFF760FA05
:101010000220764908707649087000206E49086001
:10102000D8E0002071490870714908706A49086069
:10103000D0E0CEE001206F490870002066490860CA
:10104000C8E002206B490870002063490860C1E0D5
:101050006948007828B9012067490870002067496D
:10106000086000205C490860B4E000205A4908602C
:10107000B0E0002058490860ACE000205649086004
:10108000A8E001205E4908705E49087000205249BE
:1010900008609FE00020504908609BE001205A4909
:1010A000087000204C49086094E0584800780128F6
:1010B0000ED05648007802280AD0544800780328F9
:1010C00006D052480078042802D101204F49087008
:1010D0000020414908607DE04C48007801280CD090
:1010E0004A480078022803D103204849087004E0E8
:1010F00046480078032800D000BF00203649086029
:1011000068E000203449086064E00020324908604B
:1011100060E00020304908605CE002203A49087035
:1011200000202D49086055E04FE048E03FE02FE007
:101130001FE009E0FFE702203149087031490870DB
:1011400000202549086045E04021254800F0C8F806
:101150002F48008881B2224800F0B1F900BF8021F9
:101160001F4800F0E1F80028F9D000201A49086073
:1011700030E02748006840F010002549086001224F
:1011800010211948FFF7C7FA00201349086021E031
:101190001F48006820F010001D490860002210213F
:1011A0001148FFF7B8FA00200B49086012E0002050
:1011B0001349087013490870074908600AE00020C5
:1011C000114908700449086004E0002002490860E1
:1011D00000E000BF00BF10BD580000200008024022
:1011E000004400404C000020000C0240650000203C
:1011F0006600002061000020080000200C00002094
:101200006200002063000020640000200200002033
:101210005000002010B540F225510A4800F091F826
:1012200078B140F22551074800F063F8054800F016
:1012300041F9C4B200BF2021024800F075F801282E
:10124000F9D010BD0010014010B540F225512148E1
:1012500000F077F800283BD040F225511D4800F0FF
:1012600048F81C4800F026F9C4B200BF20211948F4
:1012700000F05AF80128F9D054B30122510316485E
:10128000FFF749FA012240F22771124800F083F873
:1012900012480460002240F227710E4800F07BF8EB
:1012A00040210C4800F01CF821460A4800F007F9DC
:1012B000642000F0C7F900BF8021064800F034F830
:1012C0000028F9D000224FF400510348FFF723FA19
:1012D00010BD0000004400400008024058000020FB
:1012E00001F40072B2F5007F00D100BFCA43028052
:1012F000704710B50022002340F66A14A14200D1C5
:1013000000BF0A1201249440A3B2DC43048010BD44
:1013100021B1828942F40052828104E082894DF633
:10132000FF731A408281704702460020B1F5007FAA
:1013300000D100BF13880B400BB1012000E000205A
:10134000704770B50246002400230025002040F6B7
:101350006A16B14200D100BFC1F3421501F01F036C
:10136000012606FA03F3012D02D19689334006E0E7
:10137000022D02D1168A334001E0968A33400C12C6
:10138000012606FA04F41688344013B10CB101208A
:1013900000E0002070BDF0B50346002400260025C3
:1013A000002040F66A17B94200D100BF1846C1F3C9
:1013B000421401F01F06012707FA06F5012C01D19E
:1013C0000C3004E0022C01D1103000E014301AB1CE
:1013D00007682F43076002E00768AF430760F0BD6E
:1013E0002DE9FF4705460E460024A14600BFA04652
:1013F000B08900B100BF2C8A24F44054F088044323
:101400002C82AC8941F20C608443B0883189084356
:10141000718908430443AC81AC8A24F44074B089D8
:101420000443AC826846FFF783FA2048854202D025
:101430001F48854202D1DDF80C9001E0DDF80890EC
:10144000A88900F4004040B109EBC90000EB091085
:1014500031684900B0FBF1F707E009EBC90000EB88
:10146000091031688900B0FBF1F76420B7FBF0F098
:1014700004012009642101FB1078A88900F40040D0
:1014800040B1322000EBC800B0FBF1F000F00700E3
:10149000044308E0322000EB08106421B0FBF1F0B7
:1014A00000F00F0004432C81BDE8FF8700100140CD
:1014B0000014014001468888C0F308007047C1F35A
:1014C000080282807047000010B50020284908708B
:1014D000284908702849087028490870002202210C
:1014E0002748FFF718F9002201212548FFF713F9D3
:1014F000002208212248FFF70EF90022042120488B
:10150000FFF709F900201F4908701F4908700022E1
:1015100080211B48FFF7FFF8A0201C49086000202D
:101520001B4908701B4908601B4908601B4908607B
:101530001B4908601B4908601B49086004201B49BF
:10154000087000201A4908701A4908601A49086092
:1015500010201A49086000201949086019481A49E2
:1015600008601A49086042F210701949086010BDFD
:101570006400002061000020620000206300002061
:10158000000C0240660000206500002014000020CE
:101590001800002034000020380000203C0000200B
:1015A00040000020440000204800002002000020ED
:1015B00001000020040000200C0000204C0000204E
:1015C0005000002040420F006C00002070000020FE
:1015D0007400002000BFFEE700200149086070474A
:1015E000082C004010B50348007800F005F8FFF71C
:1015F000F3FF10BD8800002000F07F01014A116058
:1016000070470000002C004010B504466FF0040045
:10161000FFF722FBE11704EB5171C1F3C701074A41
:1016200011701046007800EB4001C1EBC0104FF67E
:10163000FF7101EAC0000249088010BDA00000202F
:10164000A20000200022002106E0002200E0521C3F
:10165000B2F57A7FFBD3491C8142F6D37047000074
:101660000146114A12784A434FF0E0235A610022A2
:101670009A611A46126942F001021A6100BF4FF0E6
:10168000E022106900F001021AB100F48032002A51
:10169000F5D04FF0E022126922F001024FF0E02372
:1016A0001A6100229A617047A0000020FEF7D4FE64
:1016B000FFF70AFF4FF4E130FFF7AEF9A820FFF77C
:1016C000A3FF03E0FEF788FEFFF73CFCFAE74FF0CC
:1016D0004070E1EE100A7047F81600080000002084
:1016E000B4000000C4010008AC170008B4000020DA
:1016F00064060000E0010008000000000000000097
:1017000000000000000000000000000000000000D9
:1017100000000000000000000000000000000000C9
:1017200000000000000000000000000000000000B9
:1017300000000000000000000000000000000000A9
:101740000000000000000000000000000000000099
:101750000000000000000000000000000000000089
:101760000000000000000000000000000000000079
:101770000000000000000000000000000000000069
:101780007F000000007A030A000000000000000053
:101790000102030406070809000000000000000021
:0C17A0000102030401020304060708090B
:040000050800018965
:00000001FF
