:020000040800F2
:10000000880600202902000825070008BB03000815
:10001000BF030008E3020008E50B00080000000031
:100020000000000000000000000000007908000847
:10003000F7020008000000001108000891090008FC
:10004000430200084302000843020008430200087C
:10005000430200084302000843020008430200086C
:10006000430200084302000843020008430200085C
:10007000430200084302000843020008430200084C
:10008000430200084302000843020008430200083C
:10009000430200084302000843020008430200082C
:1000A000430200084302000843020008430200081C
:1000B000150A00083D0A0008430200084302000830
:1000C00043020008430200084302000843020008FC
:1000D00043020008430200084302000843020008EC
:1000E00043020008430200084302000843020008DC
:1000F00043020008430200084302000843020008CC
:1001000043020008430200084302000843020008BB
:1001100043020008430200084302000843020008AB
:10012000430200084302000843020008430200089B
:10013000430200084302000843020008430200088B
:10014000430200084302000843020008430200087B
:10015000430200084302000843020008430200086B
:10016000430200084302000843020008430200085B
:10017000430200084302000843020008430200084B
:10018000430200084302000800F002F800F03CF8C7
:100190000AA090E8000C82448344AAF10107DA45E2
:1001A00001D100F031F8AFF2090EBAE80F0013F0F8
:1001B000010F18BFFB1A43F001031847B00A0000F3
:1001C000D00A0000103A24BF78C878C1FAD8520784
:1001D00024BF30C830C144BF04680C6070470000C1
:1001E0000023002400250026103A28BF78C1FBD840
:1001F000520728BF30C148BF0B6070471FB500F0E1
:100200002FFD1FBD10B510BD00F031F81146FFF7EE
:10021000F5FF00F007FD00F04FF803B4FFF7F2FF21
:1002200003BC00F057F80000094880470948004720
:10023000FEE7FEE7FEE7FEE7FEE7FEE7FEE7FEE796
:10024000FEE7FEE704480549054A064B70470000F3
:10025000AD090008890100088800002088060020F8
:10026000880200208802002070477047704775465A
:1002700000F02CF8AE4605006946534620F0070012
:10028000854618B020B5FFF7DDFFBDE820404FF0F0
:1002900000064FF000074FF000084FF0000B21F070
:1002A0000701AC46ACE8C009ACE8C009ACE8C0093D
:1002B000ACE8C0098D46704710B50446AFF3008026
:1002C0002046BDE81040FFF7A8BF00000048704777
:1002D0002800002001491820ABBEFEE726000200DE
:1002E000704700BFFEE710B54FF4A06000F086FA3B
:1002F00000F019FA10BD704737B50446012C06D13D
:100300009DF808100022019800F052F807E0022C36
:1003100005D19DF808100122019800F049F83EBD72
:10032000F0B50A4600210023002400BF3DE001256E
:1003300005FA01F3156805EA03049C4234D1056807
:100340004F000326BE40B543056015794E00B54009
:100350000668354305601579012D02D01579022D07
:1003600016D185684F000326BE40B5438560557998
:100370004E00B540866835438560456801268E404D
:10038000B5434560456896798E40B6B235434560C1
:10039000C5684F000326BE40B543C560D5794E0001
:1003A000B540C6683543C560491C1029BFD3F0BDB0
:1003B0000AB1018300E04183704700BFFEE700BF40
:1003C000FEE7000003B583B043490398884204D197
:1003D0000121084600F030FA58E04049039888426D
:1003E00004D10121022000F027FA4FE03C49039894
:1003F000884204D10121042000F01EFA46E0394968
:100400000398884204D10121082000F015FA3DE04C
:1004100035490398884204D10121102000F00CFADC
:1004200034E032490398884204D10121202000F0B1
:1004300003FA2BE02E490398884204D10121402081
:1004400000F0FAF922E02B490398884204D10121F7
:10045000802000F0F1F919E027490398884204D17F
:100460000121801500F0E8F910E024490398884242
:1004700004D10121401500F0DFF907E0204903987D
:10048000884203D10121001500F0D6F99DF8100033
:100490009DF811100843019001208DF808000020FC
:1004A0008DF80A0003208DF8090001208DF80B005B
:1004B00001A90398FFF734FF02208DF809009DF889
:1004C0001200019000208DF8080001A90398FFF7A1
:1004D00027FF05B000BD00000000024000040240FC
:1004E00000080240000C02400010024000140240CC
:1004F00000180240001C024000200240002402407C
:100500000028024010B580200E4908604FF46C505E
:100510004860002088600873487388734FF4FA605D
:100520000861002048610848886101210548017779
:100530000221417704218177C1698069FFF742FF79
:1005400010BD000008000020001002400FB410B5DC
:100550009DF81400012835D19DF81400DDE908123A
:10056000FFF7CAFE9DF8160000EBD0714910A0EB12
:100570004101012905D10120DDE9081200F049F906
:1005800015E09DF8160000EBD0714910A0EB410179
:1005900069B90899496901F00201022907D10020CF
:1005A000DDE9081200F035F90498401C0490089821
:1005B000006900F0040008990861002801D18DF855
:1005C0001400ACE09DF8140002283AD19DF8140004
:1005D000DDE90812FFF790FE9DF8160000EBD071E0
:1005E0004910A0EB4101012905D10120DDE90812E4
:1005F00000F00FF91AE09DF8160000EBD0714910D9
:10060000A0EB410191B90899496901F00201022961
:100610000CD10020DDE9081200F0FBF8049818B1B5
:100620000498401E049001E000200490089800699E
:1006300000F0040008990861002870D18DF81400BA
:100640006DE09DF81500012835D19DF81400DDE915
:100650000812FFF751FE9DF8160000EBD07149100B
:10066000A0EB4101012905D10120DDE9081200F0CC
:10067000D0F815E09DF8160000EBD0714910A0EB02
:10068000410169B90899496901F00201022907D1BC
:100690000020DDE9081200F0BCF80498401C04902A
:1006A0000898006900F0040008990861A0BB0020C8
:1006B0008DF8140033E09DF8150002282FD19DF825
:1006C0001400DDE90812FFF717FE9DF8160000EB95
:1006D000D0714910A0EB4101012905D10120DDE9CC
:1006E000081200F096F81AE09DF8160000EBD071A1
:1006F0004910A0EB410179B90899496901F002015B
:1007000002290CD10020DDE9081200F082F80498DB
:1007100018B10498401E049001E00020049010BC21
:100720005DF814FB70471FB50121084600F094F8EE
:100730004AF20F4002904FF4FA60ADF80400002036
:10074000ADF80600ADF80C0001A94FF0804000F0B4
:1007500007FA01221146900700F0F8F901218807F5
:1007600000F0D7F91C208DF8000001208DF8010061
:1007700002208DF8020001208DF80300684600F089
:1007800001F81FBD70B5002100230F22C4781CB3EF
:10079000174C246804F4E064C4F5E064C4F3072152
:1007A000C1F10404E3B20A4144789C40E1B2847888
:1007B000144021430C07210E0E4C05786155047836
:1007C00004F01F050124AC4005786D11AD0005F162
:1007D000E025C5F8004109E0047804F01F05012474
:1007E000AC40054D0678761145F8264070BD0000F6
:1007F0000CED00E000E400E080E100E0024901438C
:10080000024A1160704700000000FA050CED00E09C
:10081000704737B50446012C06D19DF80910012216
:100820000198FFF7C5FD06E02CB99DF809100022DC
:100830000198FFF7BDFD3EBD29B1064A126802438B
:10084000044B1A6004E0034A12688243014B1A60A9
:10085000704700003038024029B1064A126802434E
:10086000044B1A6004E0034A12688243014B1A6089
:100870007047000040380240704700000CB500206F
:10088000019000903448006840F48030324908609C
:1008900000BF3148006800F4003000900198401C0F
:1008A0000190009818B90198B0F5A04FF1D12A48ED
:1008B000006800F4003010B10120009001E0002039
:1008C00000900098012846D123484030006840F04D
:1008D00080502149403108602048006840F4404081
:1008E0001E4908601C48083000681B490831086030
:1008F0000846006840F4004008600846006840F47C
:10090000A05008601648091F0860081F006840F0E2
:100910008070091F086000BF0F48006800F0007079
:100920000028F9D040F205700E4908600A480830E6
:10093000006820F003000849083108600846006894
:1009400040F00200086000BF03480830006800F073
:100950000C000828F8D10CBD00380240007000409F
:1009600008544007003C0240042808D14FF0E02121
:10097000096941F004014FF0E022116107E04FF0F6
:10098000E021096921F004014FF0E0221161704774
:1009900004480069142804D103480068401C024937
:1009A00008607047080000200000002010B51548BE
:1009B000006840F47000134908601348006840F074
:1009C00001001149086000200F49083108600E48F5
:1009D00000680E4908400C4908600D48091D086070
:1009E000081F006820F48020091F086000200649C5
:1009F0000C310860FFF742FF4FF000600149803979
:100A0000086010BD88ED00E000380240FFFFF6FEF0
:100A10001030002410B50121880700F086F8012865
:100A200004D10548807BC0430349887301218807AE
:100A300000F06CF810BD00000800002010B5012186
:100A4000304800F072F8012856D12F48007B38B3A7
:100A50002D4840692C4909694900884205D22A4835
:100A60004069401C2849486146E0274840692649BA
:100A70000969490088423FD100202349486108465E
:100A80000069142804D908460069401E086133E053
:100A90001D48006914282FD814201B4908612BE039
:100AA00019484069184909694900884205D2164821
:100AB0004069401C144948611EE0134840691249CE
:100AC00009694900884217D100200F49486108464A
:100AD0000069B0F5FA6F04D208460069401C08614D
:100AE0000AE009480069B0F5FA6F05D34FF4FA60DF
:100AF00005490861002048730121024800F006F80A
:100B000010BD00000004004008000020CA4302821B
:100B1000704721B1028842F00102028004E002889D
:100B20004FF6FE731A400280704730B5024600202F
:100B300000230024158A05EA0103958905EA0104CA
:100B400013B10CB1012000E0002030BD1AB183893F
:100B50000B43838102E083898B43838170470000CC
:100B600000220288184B98420ED0184B98420BD0A6
:100B7000B0F1804F08D0164B984205D0154B9842E3
:100B800002D0154B984204D14FF68F731A404B8810
:100B90001A43124B984207D0114B984204D04FF69B
:100BA000FF431A400B891A4302804B68C3620B88CB
:100BB0000385054B984202D0044B984201D18B7AB1
:100BC0000386012383827047000001400004014036
:100BD0000004004000080040000C004000100040ED
:100BE0000014004000BFFEE710B504466FF004009B
:100BF000FFF7BAFEE11704EB5171C1F3C701074AD1
:100C000011701046007800EB4001C1EBC0104FF6A8
:100C1000FF7101EAC0000249088010BD04000020F5
:100C2000060000201FB5FFF75EFBA820FFF7DCFFE2
:100C3000FFF768FC01200849087348730020074942
:100C4000086008E0044B10330FCB8DE80F0002481A
:100C50000FC8FFF77BFCF5E708000020000000202C
:100C60004FF04070E1EE100A704700008C0C000855
:100C70000000002008000000C4010008940C0008D7
:100C80000800002080060000E001000800000000CD
:040C90000000000060
:040000050800018965
:00000001FF
