:020000040800F2
:100000009006002029020008150700083D05000899
:100010004105000847030008010C0008000000002B
:100020000000000000000000000000007107000850
:100030002D040008000000002D07000889080008B2
:10004000430200084302000843020008430200087C
:10005000430200084302000843020008430200086C
:10006000430200084302000843020008430200085C
:10007000430200084302000843020008430200084C
:100080005903000843020008430200084302000825
:10009000430200084302000843020008430200082C
:1000A000430200084302000843020008430200081C
:1000B000430200084302000843020008430200080C
:1000C00043020008430200084302000843020008FC
:1000D00043020008430200084302000843020008EC
:1000E00043020008430200084302000843020008DC
:1000F00043020008430200084302000843020008CC
:1001000043020008430200084302000843020008BB
:1001100043020008430200084302000843020008AB
:10012000430200084302000843020008430200089B
:10013000430200084302000843020008430200088B
:10014000430200084302000843020008430200087B
:10015000430200084302000843020008430200086B
:10016000430200084302000843020008430200085B
:10017000430200084302000843020008430200084B
:10018000430200084302000800F002F800F03CF8C7
:100190000AA090E8000C82448344AAF10107DA45E2
:1001A00001D100F031F8AFF2090EBAE80F0013F0F8
:1001B000010F18BFFB1A43F001031847CC0A0000D7
:1001C000EC0A0000103A24BF78C878C1FAD8520768
:1001D00024BF30C830C144BF04680C6070470000C1
:1001E0000023002400250026103A28BF78C1FBD840
:1001F000520728BF30C148BF0B6070471FB500F0E1
:100200003DFD1FBD10B510BD00F063F81146FFF7AE
:10021000F5FF00F015FD00F081F803B4FFF7F2FFE1
:1002200003BC00F089F800000948804709480047EE
:10023000FEE7FEE7FEE7FEE7FEE7FEE7FEE7FEE796
:10024000FEE7FEE704480549054A064B70470000F3
:100250008D08000889010008900000209006002009
:10026000900200209002002010B5203AC0F00B80D0
:10027000B1E81850203AA0E81850B1E81850A0E8AA
:100280001850BFF4F5AF5FEA027C24BFB1E8185004
:10029000A0E8185044BF18C918C0BDE810405FEA74
:1002A000827C24BF51F8043B40F8043B08BF7047F0
:1002B000D20728BF31F8023B48BF11F8012B28BFF5
:1002C00020F8023B48BF00F8012B70477047704789
:1002D0007047754600F02CF8AE4605006946534657
:1002E00020F00700854618B020B5FFF7ABFFBDE84A
:1002F00020404FF000064FF000074FF000084FF08D
:10030000000B21F00701AC46ACE8C009ACE8C0091D
:10031000ACE8C009ACE8C0098D46704710B504468A
:10032000AFF300802046BDE81040FFF776BF000025
:10033000004870473000002001491820ABBEFEE79E
:1003400026000200704700BFFEE710B54FF4A06022
:1003500000F0E2F910BD000010B50B490B4800F0A9
:1003600033F801280ED10A480069094949698842D1
:1003700004D907480069401E05490861024903483D
:1003800000F008F810BD00000088002088600240DE
:10039000040000200246094B9A4201D2084801E0BD
:1003A0000648103801F000531BB1064B0B40C360E8
:1003B00002E0044B0B408360704700001064024071
:1003C000006002407D0F7D0F70B5024600200024C2
:1003D0000025124EB24201D2114B01E00F4B103BEF
:1003E000104E0E4036B11E2606EAD124166806EAE3
:1003F000040502E0566906F0800501F000560EB1D2
:100400005C6800E01C68084E344004EA010616B13E
:100410000DB1012000E0002070BD0000106402401A
:10042000006002403C0F3C0F7D0F7D0F70470FB402
:1004300010B50446012C06D19DF81810002203982F
:1004400000F077F807E0022C05D19DF81810012282
:10045000039800F06EF810BC5DF814FBF0B50A4686
:1004600000210023002400BF3DE0012505FA01F32F
:10047000156805EA03049C4234D105684F00032641
:10048000BE40B543056015794E00B540066835435A
:1004900005601579012D02D01579022D16D18568D8
:1004A0004F000326BE40B543856055794E00B540E8
:1004B000866835438560456801268E40B5434560B2
:1004C000456896798E40B6B235434560C5684F00A1
:1004D0000326BE40B543C560D5794E00B540C66819
:1004E0003543C560491C1029BFD3F0BDF0B50023CA
:1004F00000244D07ED0E02FA05F3CE1000F12005A1
:1005000055F826504E07F70E0F26BE40B543CF10C4
:1005100000F1200646F82750CE1000F1200555F8CE
:10052000265045EA0304CE1000F1200545F8264088
:10053000F0BD0AB1018300E04183704700BFFEE7D0
:1005400000BFFEE70FB583B041490398884204D14C
:100550000121084600F0ECF858E03E490398884233
:1005600004D10121022000F0E3F84FE03A4903985A
:10057000884204D10121042000F0DAF846E037492E
:100580000398884204D10121082000F0D1F83DE011
:1005900033490398884204D10121102000F0C8F8A3
:1005A00034E030490398884204D10121202000F032
:1005B000BFF82BE02C490398884204D10121402048
:1005C00000F0B6F822E029490398884204D10121BD
:1005D000802000F0ADF819E025490398884204D145
:1005E0000121801500F0A4F810E022490398884208
:1005F00004D10121401500F09BF807E01E49039843
:10060000884203D10121001500F092F89DF81800EE
:10061000019001208DF8080000208DF80A000320C9
:100620008DF8090001208DF80B0001A90398FFF750
:1006300015FF02208DF809009DF81A000190002096
:100640008DF8080001A90598FFF708FF07B000BD65
:10065000000002400004024000080240000C02407A
:10066000001002400014024000180240001C02402A
:1006700000200240002402400028024010B58020E3
:10068000134908604FF46C5048600020886008737C
:10069000487340F2992008610E48486140F24D10BD
:1006A00088610D490A4801620C480949C8610C4932
:1006B00007484162012180F82810402180F8291064
:1006C000042180F82A101C300FC8FFF73BFF10BD33
:1006D00004000020A0860100000802400010024033
:1006E000000002400FB408B59DF8140001280CD199
:1006F0000C9800909DF8140009A90EC9FFF797FE09
:1007000000BF0348007B0028FBD101B05DF814FB5B
:10071000040000207047000002490143024A1160B2
:10072000704700000000FA050CED00E07047000083
:1007300029B1064A12680243044B1A6004E0034AD6
:1007400012688243014B1A60704700003038024043
:1007500029B1064A12680243044B1A6004E0034AB6
:1007600012688243014B1A60704700004038024013
:10077000704700000CB500200190009034480068DC
:1007800040F480303249086000BF3148006800F40E
:10079000003000900198401C0190009818B9019811
:1007A000B0F5A04FF1D12A48006800F4003010B134
:1007B0000120009001E0002000900098012846D11F
:1007C00023484030006840F08050214940310860A3
:1007D0002048006840F440401E4908601C4808302A
:1007E00000681B49083108600846006840F4004072
:1007F00008600846006840F4A05008601648091FC9
:100800000860081F006840F08070091F086000BF82
:100810000F48006800F000700028F9D040F2057021
:100820000E4908600A480830006820F003000849B3
:10083000083108600846006840F00200086000BF08
:1008400003480830006800F00C000828F8D10CBDFF
:10085000003802400070004008544007003C02404D
:10086000042808D14FF0E021096941F004014FF05C
:10087000E022116107E04FF0E021096921F0040155
:100880004FF0E022116170477047000010B5154825
:10089000006840F47000134908601348006840F095
:1008A00001001149086000200F49083108600E4816
:1008B00000680E4908400C4908600D48091D086091
:1008C000081F006820F48020091F086000200649E6
:1008D0000C310860FFF74EFF4FF00060014980398E
:1008E000086010BD88ED00E000380240FFFFF6FE12
:1008F0001030002400B589B0174800690790032024
:10090000ADF818000020ADF81A00ADF820008DF801
:10091000220006A9114800F031F96020ADF804006A
:100920000120ADF806000C48806903900020ADF866
:10093000100001A9094800F0D9F80821074800F083
:1009400013F90121054800F0B9F80121034800F02E
:10095000C1F809B000BD0000040000200004004000
:1009600010B500F003F8FFF7C5FF10BD1CB501215D
:100970000220FFF7EDFE4548006A4549884204D150
:1009800001210846FFF7D4FE62E04048006A414971
:10099000884204D101210220FFF7CAFE58E03B48FB
:1009A000006A3D49884204D101210420FFF7C0FEBE
:1009B0004EE03648006A3949884204D101210820B6
:1009C000FFF7B6FE44E03148006A3549884204D159
:1009D00001211020FFF7ACFE3AE02C48006A3149B3
:1009E000884204D101212020FFF7A2FE30E02748F1
:1009F000006A2D49884204D101214020FFF798FE6A
:100A000026E02248006A2949884204D10121802039
:100A1000FFF78EFE1CE01D48006A2549884204D17C
:100A200001218015FFF784FE12E01848006A214971
:100A3000884204D101214015FFF77AFE08E01348EF
:100A4000006A1D49884203D101210015FFF770FE9D
:100A50000E4890F82900009002208DF80400032031
:100A60008DF8050000208DF8060001208DF80700A4
:100A70000649086A6946FFF7F1FC044A92F8291012
:100A8000106A0222FFF732FD1CBD000004000020A6
:100A9000000002400004024000080240000C024036
:100AA000001002400014024000180240001C0240E6
:100AB00000200240002402400028024021B10288A8
:100AC00042F08002028004E002884FF67F731A40F1
:100AD0000280704721B1028842F00102028004E0E6
:100AE00002884FF6FE731A400280704770B50024EA
:100AF00000220023058C4FF6FE7635400584028CDB
:100B00008388048B4FF68F752C40B51E2C400D88C2
:100B10002C43751E2A408D892A434D882A43104D47
:100B2000A84202D00F4DA84213D14FF6F7752A40C4
:100B3000CD892A434FF6FB752A408D882A434FF60C
:100B4000FF652B404FF6FF552B400D8A2B434D8AF6
:100B50002B43838004838D684563028470BD00004D
:100B600000000140000401400A460021018B4FF6BD
:100B7000F773194011430183704700000022028877
:100B8000184B98420ED0184B98420BD0B0F1804FC2
:100B900008D0164B984205D0154B984202D0154B01
:100BA000984204D14FF68F731A404B881A43124B68
:100BB000984207D0114B984204D04FF6FF431A4099
:100BC0000B891A4302804B68C3620B880385054B6F
:100BD000984202D0044B984201D18B7A03860123BC
:100BE000838270470000014000040140000400407F
:100BF00000080040000C00400010004000140040BD
:100C000000BFFEE710B504466FF00400FFF728FEB2
:100C1000E11704EB5171C1F3C701074A1170104687
:100C2000007800EB4001C1EBC0104FF6FF7101EA04
:100C3000C0000249088010BD000000200200002012
:100C400000B587B0FFF781FBA820FFF7DBFFFFF7B8
:100C500015FDFFF785FE01200749087348731C2224
:100C600010316846FFF700FB03480FC8FFF73AFD55
:100C7000002007B000BD0000040000204FF04070CD
:100C8000E1EE100A70470000A80C000800000020E8
:100C900004000000C4010008AC0C0008040000209F
:0C0CA0008C060000E001000800000000CD
:040000050800018965
:00000001FF
