:020000040800F2
:100000009806002029020008310900085507000859
:100010005907000847030008C51200080000000047
:10002000000000000000000000000000450A000879
:100030004506000800000000C10900085D0B00082B
:10004000430200084302000843020008430200087C
:10005000430200084302000843020008430200086C
:10006000430200084302000843020008430200085C
:10007000430200084302000843020008430200084C
:100080005903000843020008430200084302000825
:10009000430200084302000843020008430200082C
:1000A000430200084302000843020008430200081C
:1000B000430200084302000843020008430200080C
:1000C00043020008430200084302000843020008FC
:1000D00043020008430200084302000843020008EC
:1000E00043020008430200084302000843020008DC
:1000F00043020008430200084302000843020008CC
:1001000043020008430200084302000843020008BB
:1001100043020008430200084302000843020008AB
:10012000430200084302000843020008430200089B
:10013000430200084302000843020008430200088B
:10014000430200084302000843020008430200087B
:10015000430200084302000843020008430200086B
:10016000430200084302000843020008430200085B
:10017000430200084302000843020008430200084B
:10018000430200084302000800F002F800F03CF8C7
:100190000AA090E8000C82448344AAF10107DA45E2
:1001A00001D100F031F8AFF2090EBAE80F0013F0F8
:1001B000010F18BFFB1A43F001031847901100000C
:1001C000B0110000103A24BF78C878C1FAD852079D
:1001D00024BF30C830C144BF04680C6070470000C1
:1001E0000023002400250026103A28BF78C1FBD840
:1001F000520728BF30C148BF0B6070471FB501F0E0
:100200009FF81FBD10B510BD00F063F81146FFF751
:10021000F5FF01F077F800F081F803B4FFF7F2FF83
:1002200003BC00F089F800000948804709480047EE
:10023000FEE7FEE7FEE7FEE7FEE7FEE7FEE7FEE796
:10024000FEE7FEE704480549054A064B70470000F3
:10025000610B000889010008980000209806002022
:10026000980200209802002010B5203AC0F00B80C0
:10027000B1E81850203AA0E81850B1E81850A0E8AA
:100280001850BFF4F5AF5FEA027C24BFB1E8185004
:10029000A0E8185044BF18C918C0BDE810405FEA74
:1002A000827C24BF51F8043B40F8043B08BF7047F0
:1002B000D20728BF31F8023B48BF11F8012B28BFF5
:1002C00020F8023B48BF00F8012B70477047704789
:1002D0007047754600F02CF8AE4605006946534657
:1002E00020F00700854618B020B5FFF7ABFFBDE84A
:1002F00020404FF000064FF000074FF000084FF08D
:10030000000B21F00701AC46ACE8C009ACE8C0091D
:10031000ACE8C009ACE8C0098D46704710B504468A
:10032000AFF300802046BDE81040FFF776BF000025
:10033000004870473400002001491820ABBEFEE79A
:1003400026000200704700BFFEE710B54FF4A06022
:1003500000F02CFB10BD000010B50B490B4800F05D
:10036000F5F801280ED10A4800690949496988420F
:1003700004D907480069401E05490861024903483D
:1003800000F008F810BD00000088002088600240DE
:10039000040000200246094B9A4201D2084801E0BD
:1003A0000648103801F000531BB1064B0B40C360E8
:1003B00002E0044B0B408360704700001064024071
:1003C000006002407D0F7D0F21B1026842F0010202
:1003D000026003E0026822F0010202607047000040
:1003E000016821F00101016000210160416081602C
:1003F000C1600161212141614A49884204D13D2106
:10040000484A103A91608CE046491831884205D13B
:100410004FF47461434A103A916082E041493031AF
:10042000884205D14FF474113E4A103A916078E049
:100430003C494831884205D14FF07461394A103A3D
:1004400091606EE037496031884204D13649354ABF
:10045000103AD16065E033497831884204D133499C
:10046000304A103AD1605CE02E499031884204D184
:100470002F492C4A103AD16053E02A49A8318842CA
:1004800005D14FF03D51274A103AD16049E0294942
:10049000884204D13D21274A083A116041E02549AC
:1004A0001831884205D14FF47461224A083A11602C
:1004B00037E020493031884205D14FF474111D4A8C
:1004C000083A11602DE01B494831884205D14FF0B0
:1004D0007461184A083A116023E016496031884275
:1004E00004D11149134A121F11601AE011497831E1
:1004F000884204D10D490F4A121F116011E00D49C5
:100500009031884204D10A490A4A121F116008E05A
:100510000849A831884204D14FF03D51054A121FC5
:1005200011607047106002403D000020400F002025
:1005300000003D2010640240014600200A6802F0DD
:1005400001020AB1012000E00020704770B50246A8
:10055000002000240025124EB24201D2114B01E0CE
:100560000F4B103B104E0E4036B11E2606EAD1242A
:10057000166806EA040502E0566906F0800501F0F7
:1005800000560EB15C6800E01C68084E344004EA76
:10059000010616B10DB1012000E0002070BD000081
:1005A00010640240006002403C0F3C0F7D0F7D0F45
:1005B00010B501F080034BB122B1436943F08003D1
:1005C000436103E0436923F08003436180290BD03A
:1005D0002AB1036801F01E042343036004E00368AA
:1005E00001F01E04A343036010BD000010B50022FB
:1005F0000268134B1A40CC680B6823434C692343B1
:100600008C692343CC6923430C6A23434C6A2343FC
:100610008C6A23434C6B23438C6B23431A43026045
:10062000426922F00702D1E90B3423431A434261A5
:100630000B6943604B6883608B68C36010BD00002A
:100640003F801CF070470FB410B50446012C06D152
:10065000BDF818100022039800F077F807E0022C8C
:1006600005D1BDF818100122039800F06EF810BCF7
:100670005DF814FBF0B50A4600210023002400BFFA
:100680003DE0012505FA01F3156805EA03049C42E3
:1006900034D105684F000326BE40B5430560157987
:1006A0004E00B5400668354305601579012D02D02E
:1006B0001579022D16D185684F000326BE40B5433B
:1006C000856055794E00B54086683543856045683C
:1006D00001268E40B5434560456896798E40B6B296
:1006E00035434560C5684F000326BE40B543C5602D
:1006F000D5794E00B540C6683543C560491C102900
:10070000BFD3F0BDF0B5002300244D07ED0E02FA73
:1007100005F3CE1000F1200555F826504E07F70ED0
:100720000F26BE40B543CF1000F1200646F82750F3
:10073000CE1000F1200555F8265045EA0304CE10EE
:1007400000F1200545F82640F0BD0AB1018300E024
:100750004183704700BFFEE700BFFEE70FB41CB542
:1007600042490498884204D10121084600F02AF940
:1007700058E03F490498884204D10121022000F04A
:1007800021F94FE03B490498884204D1012104201B
:1007900000F018F946E038490498884204D1012154
:1007A000082000F00FF93DE034490498884204D154
:1007B0000121102000F006F934E031490498884204
:1007C00004D10121202000F0FDF82BE02D490498F0
:1007D000884204D10121402000F0F4F822E02A49A7
:1007E0000498884204D10121802000F0EBF819E040
:1007F00026490498884204D10121801500F0E2F8CE
:1008000010E023490498884204D10121401500F0EA
:10081000D9F807E01F490498884203D10121001547
:1008200000F0D0F8BDF81C00009001208DF8040005
:1008300000208DF8060003208DF8050001208DF8BA
:10084000070069460498FFF715FF02208DF80500A0
:10085000BDF82000009000208DF80400694606983D
:10086000FFF708FF1CBC5DF814FB0000000002400D
:100870000004024000080240000C02400010024048
:100880000014024000180240001C024000200240F8
:10089000002402400028024008B580201349086067
:1008A0004FF46C504860002088600873487344F629
:1008B000206008614FF47A704861401088610C49EB
:1008C0000A4801620B480949C86109490748416261
:1008D00001210185418504218185C06A009003487A
:1008E0001C300FC8FFF73AFF08BD000004000020CD
:1008F00000000240001002400FB41CB59DF81C001F
:10090000012810D1DDE90E01CDE900019DF81C00A0
:100910000BA90EC9FFF797FE00F056F900BF034878
:10092000007B0028FBD11CBC5DF814FB04000020F8
:100930007047000070B5002100230F22C4781CB35B
:10094000174C246804F4E064C4F5E064C4F30721A0
:10095000C1F10404E3B20A4144789C40E1B28478D6
:10096000144021430C07210E0E4C05786155047884
:1009700004F01F050124AC4005786D11AD0005F1B0
:10098000E025C5F8004109E0047804F01F050124C2
:10099000AC40054D0678761145F8264070BD000044
:1009A0000CED00E000E400E080E100E002490143DA
:1009B000024A1160704700000000FA050CED00E0EB
:1009C0007047000029B1064A12680243044B1A60BE
:1009D00004E0034A12688243014B1A60704700002A
:1009E0003038024029B1064A12680243044B1A60AB
:1009F00004E0034A12688243014B1A60704700000A
:100A00004038024029B1064A12680243044B1A607A
:100A100004E0034A12688243014B1A6070470000E9
:100A20002038024029B1064A12680243044B1A607A
:100A300004E0034A12688243014B1A6070470000C9
:100A400024380240704700000CB50020019000904F
:100A50003448006840F480303249086000BF3148B3
:100A6000006800F4003000900198401C019000984C
:100A700018B90198B0F5A04FF1D12A48006800F4E8
:100A8000003010B10120009001E00020009000989B
:100A9000012846D123484030006840F08050214969
:100AA000403108602048006840F440401E4908601A
:100AB0001C48083000681B49083108600846006877
:100AC00040F4004008600846006840F4A050086008
:100AD0001648091F0860081F006840F08070091F51
:100AE000086000BF0F48006800F000700028F9D0CF
:100AF00040F205700E4908600A480830006820F08E
:100B000003000849083108600846006840F0020008
:100B1000086000BF03480830006800F00C00082897
:100B2000F8D10CBD00380240007000400854400766
:100B3000003C0240042808D14FF0E021096941F04F
:100B400004014FF0E022116107E04FF0E021096954
:100B500021F004014FF0E02211617047704700005E
:100B600010B51548006840F4700013490860134838
:100B7000006840F001001149086000200F49083169
:100B800008600E4800680E4908400C4908600D488E
:100B9000091D0860081F006820F48020091F0860F4
:100BA000002006490C310860FFF74EFF4FF000604F
:100BB00001498039086010BD88ED00E0003802402E
:100BC000FFFFF6FE1030002410B501225102480547
:100BD00000F01CFA4FF08040008C40F002004FF013
:100BE000804108840121880700F004FA01210448AB
:100BF000FFF7EAFB012210210148FFF7D9FC10BDE5
:100C00008860024000B589B04FF0804000F008FADB
:100C100001210846FFF7E6FE1B4800690790002007
:100C2000ADF81800ADF82000ADF81A0006A94FF095
:100C3000804000F005FB6020ADF804000120ADF815
:100C400006001148806903900020ADF8100001A94A
:100C50004FF0804000F0ACFA0821C80600F0E6FA38
:100C600000214FF0804000F0B9F94FF08040008C37
:100C700040F002004FF08041088400214FF0804096
:100C800000F0B8F909B000BD0400002010B500F074
:100C900005F8FFF7B7FF00F053F910BD1CB59C48ED
:100CA000006A9C49884204D101210846FFF78AFE68
:100CB00062E09748006A9849884204D101210220E5
:100CC000FFF780FE58E09248006A9449884204D1B8
:100CD00001210420FFF776FE4EE08D48006A90491E
:100CE000884204D101210820FFF76CFE44E08848C7
:100CF000006A8C49884204D101211020FFF762FE6E
:100D00003AE08348006A8849884204D101212020C2
:100D1000FFF758FE30E07E48006A8449884204D1DB
:100D200001214020FFF74EFE26E07948006A804905
:100D3000884204D101218020FFF744FE1CE0744862
:100D4000006A7C49884204D101218015FFF73AFEF0
:100D500012E06F48006A7849884204D101214015A9
:100D6000FFF730FE08E06A48006A7449884203D100
:100D700001210015FFF726FE6548408D00900220F6
:100D80008DF8040003208DF8050000208DF8060082
:100D900001208DF807005E49086A6946FFF76AFC82
:100DA0005B48408D012806D159490122086A00217B
:100DB000FFF7A8FCABE05648408D022806D1544905
:100DC0000122086A1146FFF79DFCA0E05048408DC3
:100DD000042806D14E490122086A0221FFF792FC3D
:100DE00095E04B48408D082806D149490122086A00
:100DF0000321FFF787FC8AE04548408D102806D183
:100E000043490122086A0421FFF77CFC7FE0404847
:100E1000408D202806D13E490122086A0521FFF7AE
:100E200071FC74E03A48408D402806D138490122CF
:100E3000086A0621FFF766FC69E03548408D802886
:100E400006D133490122086A0721FFF75BFC5EE007
:100E50002F48408DB0F5807F06D12D490122086AC8
:100E60000821FFF74FFC52E02948408DB0F5007F84
:100E700006D127490122086A0921FFF743FC46E011
:100E80002348408DB0F5806F06D121490122086AC0
:100E90000A21FFF737FC3AE01D48408DB0F5006F9E
:100EA00006D11B490122086A0B21FFF72BFC2EE01B
:100EB0001748408DB0F5805F06D115490122086AB8
:100EC0000C21FFF71FFC22E01148408DB0F5005FB8
:100ED00006D10F490122086A0D21FFF713FC16E025
:100EE0000B48408DB0F5804F06D109490122086AB0
:100EF0000E21FFF707FC0AE00548408DB0F5004FD2
:100F000005D103490122086A0F21FFF7FBFB1CBD35
:100F100004000020000002400004024000080240DB
:100F2000000C024000100240001402400018024071
:100F3000001C024000200240002402400028024021
:100F400000B591B001214805FFF73CFD2048FFF7AF
:100F500047FA00BF1E48FFF7EFFA0028FAD14FF01A
:100F6000C06002901B4803901B480490012006902B
:100F700040200590002007904FF48060089080008A
:100F8000099040000A9040110B9040020C90002004
:100F90000D9001200E9000200F90109002A90C4897
:100FA000FFF724FB10208DF8040000208DF80500C9
:100FB0008DF8060001208DF8070001A8FFF7BAFCA4
:100FC000002210210248FFF7F3FA11B000BD000023
:100FD000886002402C0000401400002021B10288EB
:100FE00042F08002028004E002884FF67F731A40CC
:100FF0000280704721B1028842F00102028004E0C1
:1010000002884FF6FE731A40028070471AB1838936
:101010000B43838102E083898B4383817047000007
:1010200010B504465548844208D101210846FFF70F
:10103000F9FC00210120FFF7F5FC9DE0B4F1804FA1
:1010400008D101210846FFF7DDFC00210120FFF750
:10105000D9FC91E04A48844208D101210220FFF7DF
:10106000D1FC00210220FFF7CDFC85E045488442F9
:1010700008D101210420FFF7C5FC00210420FFF75F
:10108000C1FC79E04048844208D101210820FFF7E3
:10109000B9FC00210820FFF7B5FC6DE03B48844215
:1010A00008D101211020FFF7ADFC00211020FFF72F
:1010B000A9FC61E03648844208D101212020FFF7D5
:1010C000A1FC00212020FFF79DFC55E0314884421F
:1010D00008D101210220FFF7A5FC00210220FFF723
:1010E000A1FC49E02C48844209D101210804FFF702
:1010F00099FC00214FF48030FFF794FC3CE0274836
:10110000844209D101214804FFF78CFC00214FF4EF
:101110000030FFF787FC2FE02148844209D10121EC
:101120008804FFF77FFC00214FF48020FFF77AFC52
:1011300022E01C48844208D101214020FFF762FCD4
:1011400000214020FFF75EFC16E01748844208D1DA
:1011500001218020FFF756FC00218020FFF752FC80
:101160000AE01248844207D101218015FFF74AFCAA
:101170000021A015FFF746FC10BD00000000014053
:101180000004004000080040000C00400010004037
:1011900000140040000401400040014000440140B0
:1011A0000048014000180040001C004000200040A2
:1011B00070B5002400220023058C4FF6FE763540E2
:1011C0000584028C8388048B4FF68F752C40B51EE6
:1011D0002C400D882C43751E2A408D892A434D884A
:1011E0002A43104DA84202D00F4DA84213D14FF60A
:1011F000F7752A40CD892A434FF6FB752A408D8822
:101200002A434FF6FF652B404FF6FF552B400D8AC2
:101210002B434D8A2B43838004838D68456302846E
:1012200070BD000000000140000401400A4600219A
:10123000018B4FF6F773194011430183704700008B
:1012400000220288184B98420ED0184B98420BD0BF
:10125000B0F1804F08D0164B984205D0154B9842FC
:1012600002D0154B984204D14FF68F731A404B8829
:101270001A43124B984207D0114B984204D04FF6B4
:10128000FF431A400B891A4302804B68C3620B88E4
:101290000385054B984202D0044B984201D18B7ACA
:1012A000038601238382704700000140000401404F
:1012B0000004004000080040000C00400010004006
:1012C0000014004000BFFEE710B504466FF00400B4
:1012D000FFF730FCE11704EB5171C1F3C701074A76
:1012E00011701046007800EB4001C1EBC0104FF6C2
:1012F000FF7101EAC0000249088010BD0000002013
:101300000200002000B589B0FFF71FF8A820FFF702
:10131000DBFFFFF7C1FAFFF7B9FC012007490873AB
:101320004873202210316846FEF79EFF03480FC81D
:10133000FFF7E2FA002009B000BD00000400002021
:101340004FF04070E1EE100A704700006C13000887
:101350000000002004000000C40100087013000811
:101360000400002094060000E001000800000000D6
:040000050800018965
:00000001FF
