:020000040800F2
:10000000880600202902000801030008F902000800
:10001000FD020008E3020008450700080000000098
:100020000000000000000000000000007104000853
:10003000F7020008000000004D04000889050008D0
:10004000430200084302000843020008430200087C
:10005000430200084302000843020008430200086C
:10006000430200084302000843020008430200085C
:10007000430200084302000843020008430200084C
:10008000430200084302000843020008430200083C
:10009000430200084302000843020008430200082C
:1000A000430200084302000843020008430200081C
:1000B000F50500082D060008430200084302000869
:1000C00043020008430200084302000843020008FC
:1000D00043020008430200084302000843020008EC
:1000E00043020008430200084302000843020008DC
:1000F00043020008430200084302000843020008CC
:1001000043020008430200084302000843020008BB
:1001100043020008430200084302000843020008AB
:10012000430200084302000843020008430200089B
:10013000430200084302000843020008430200088B
:10014000430200084302000843020008430200087B
:10015000430200084302000843020008430200086B
:10016000430200084302000843020008430200085B
:10017000430200084302000843020008430200084B
:10018000430200084302000800F002F800F03CF8C7
:100190000AA090E8000C82448344AAF10107DA45E2
:1001A00001D100F031F8AFF2090EBAE80F0013F0F8
:1001B000010F18BFFB1A43F001031847E0050000C8
:1001C00000060000103A24BF78C878C1FAD8520758
:1001D00024BF30C830C144BF04680C6070470000C1
:1001E0000023002400250026103A28BF78C1FBD840
:1001F000520728BF30C148BF0B6070471FB500F0E1
:10020000C8FA1FBD10B510BD00F031F81146FFF758
:10021000F5FF00F0B7FA00F04FF803B4FFF7F2FF74
:1002200003BC00F057F80000094880470948004720
:10023000FEE7FEE7FEE7FEE7FEE7FEE7FEE7FEE796
:10024000FEE7FEE704480549054A064B70470000F3
:100250008D0500088901000888000020880600201C
:10026000880200208802002070477047704775465A
:1002700000F02CF8AE4605006946534620F0070012
:10028000854618B020B5FFF7DDFFBDE820404FF0F0
:1002900000064FF000074FF000084FF0000B21F070
:1002A0000701AC46ACE8C009ACE8C009ACE8C0093D
:1002B000ACE8C0098D46704710B50446AFF3008026
:1002C0002046BDE81040FFF7A8BF00000048704777
:1002D0002400002001491820ABBEFEE726000200E2
:1002E000704700BFFEE710B54FF4A06000F0A4F81F
:1002F00000F008F810BD704700BFFEE700BFFEE742
:10030000704700001FB50121084600F0A1F840F237
:10031000E730029042F2CF00ADF804000020ADF8C3
:100320000600ADF80C0001A94FF0804000F0C8F9BC
:1003300001221146900700F0B9F90121880700F069
:1003400098F91C208DF8000001208DF80100022092
:100350008DF8020001208DF80300684600F030F8A7
:100360000121022000F074F841F28730029042F23D
:10037000CF00ADF804000020ADF80600ADF80C0089
:1003800001A90E4800F09CF9012211460B4800F02B
:100390008DF90121094800F06CF91D208DF800004D
:1003A00001208DF8010000208DF8020001208DF859
:1003B0000300684600F004F81FBD00000004004080
:1003C00070B5002100230F22C4781CB3174C246899
:1003D00004F4E064C4F5E064C4F30721C1F104044B
:1003E000E3B20A4144789C40E1B28478144021434E
:1003F0000C07210E0E4C05786155047804F01F059A
:100400000124AC4005786D11AD0005F1E025C5F87B
:10041000004109E0047804F01F050124AC40054DBB
:100420000678761145F8264070BD00000CED00E01E
:1004300000E400E080E100E002490143024A11606B
:10044000704700000000FA050CED00E07047000066
:1004500029B1064A12680243044B1A6004E0034AB9
:1004600012688243014B1A60704700004038024016
:10047000704700000CB500200190009034480068DF
:1004800040F480303249086000BF3148006800F411
:10049000003000900198401C0190009818B9019814
:1004A000B0F5A04FF1D12A48006800F4003010B137
:1004B0000120009001E0002000900098012846D122
:1004C00023484030006840F08050214940310860A6
:1004D0002048006840F440401E4908601C4808302D
:1004E00000681B49083108600846006840F4004075
:1004F00008600846006840F4A05008601648091FCC
:100500000860081F006840F08070091F086000BF85
:100510000F48006800F000700028F9D040F2057024
:100520000E4908600A480830006820F003000849B6
:10053000083108600846006840F00200086000BF0B
:1005400003480830006800F00C000828F8D10CBD02
:10055000003802400070004008544007003C024050
:10056000042808D14FF0E021096941F004014FF05F
:10057000E022116107E04FF0E021096921F0040158
:100580004FF0E022116170477047000010B5154828
:10059000006840F47000134908601348006840F098
:1005A00001001149086000200F49083108600E4819
:1005B00000680E4908400C4908600D48091D086094
:1005C000081F006820F48020091F086000200649E9
:1005D0000C310860FFF74EFF4FF000600149803991
:1005E000086010BD88ED00E000380240FFFFF6FE15
:1005F0001030002410B50121880700F046F80128CA
:100600000CD10948406908490969884203D800208B
:100610000549487302E00120034948730121880716
:1006200000F024F810BD00000400002010B50121E6
:100630000C4800F02AF801280FD10B4840690A49FC
:1006400009694900884205D207484069401C0649AB
:10065000486102E00020044948610121014800F09E
:1006600005F810BD0004004004000020CA430282C7
:10067000704721B1028842F00102028004E0028842
:100680004FF6FE731A400280704730B502460020D4
:1006900000230024158A05EA0103958905EA01046F
:1006A00013B10CB1012000E0002030BD1AB18389E4
:1006B0000B43838102E083898B4383817047000071
:1006C00000220288184B98420ED0184B98420BD04B
:1006D000B0F1804F08D0164B984205D0154B984288
:1006E00002D0154B984204D14FF68F731A404B88B5
:1006F0001A43124B984207D0114B984204D04FF640
:10070000FF431A400B891A4302804B68C3620B886F
:100710000385054B984202D0044B984201D18B7A55
:1007200003860123838270470000014000040140DA
:100730000004004000080040000C00400010004091
:100740000014004000BFFEE710B504466FF004003F
:10075000FFF706FFE11704EB5171C1F3C701074A28
:1007600011701046007800EB4001C1EBC0104FF64D
:10077000FF7101EAC0000249088010BD000000209E
:1007800002000020FFF7AFFDA820FFF7DDFF00BF4C
:10079000FEE74FF04070E1EE100A7047BC0700081A
:1007A0000000002004000000C4010008C007000889
:1007B0000400002084060000E001000800000000A2
:040000050800018965
:00000001FF
