:020000040800F2
:1000000090060020290200082D0900085507000865
:100010005907000847030008D51100080000000038
:10002000000000000000000000000000410A00087D
:100030004506000800000000BD090008590B000833
:10004000430200084302000843020008430200087C
:10005000430200084302000843020008430200086C
:10006000430200084302000843020008430200085C
:10007000430200084302000843020008430200084C
:100080005903000843020008430200084302000825
:10009000430200084302000843020008430200082C
:1000A000430200084302000843020008430200081C
:1000B000430200084302000843020008430200080C
:1000C00043020008430200084302000843020008FC
:1000D00043020008430200084302000843020008EC
:1000E00043020008430200084302000843020008DC
:1000F00043020008430200084302000843020008CC
:1001000043020008430200084302000843020008BB
:1001100043020008430200084302000843020008AB
:10012000430200084302000843020008430200089B
:10013000430200084302000843020008430200088B
:10014000430200084302000843020008430200087B
:10015000430200084302000843020008430200086B
:10016000430200084302000843020008430200085B
:10017000430200084302000843020008430200084B
:10018000430200084302000800F002F800F03CF8C7
:100190000AA090E8000C82448344AAF10107DA45E2
:1001A00001D100F031F8AFF2090EBAE80F0013F0F8
:1001B000010F18BFFB1A43F001031847A0100000FD
:1001C000C0100000103A24BF78C878C1FAD852078E
:1001D00024BF30C830C144BF04680C6070470000C1
:1001E0000023002400250026103A28BF78C1FBD840
:1001F000520728BF30C148BF0B6070471FB501F0E0
:1002000027F81FBD10B510BD00F063F81146FFF7C9
:10021000F5FF00F0FFFF00F081F803B4FFF7F2FFF5
:1002200003BC00F089F800000948804709480047EE
:10023000FEE7FEE7FEE7FEE7FEE7FEE7FEE7FEE796
:10024000FEE7FEE704480549054A064B70470000F3
:100250005D0B000889010008900000209006002036
:10026000900200209002002010B5203AC0F00B80D0
:10027000B1E81850203AA0E81850B1E81850A0E8AA
:100280001850BFF4F5AF5FEA027C24BFB1E8185004
:10029000A0E8185044BF18C918C0BDE810405FEA74
:1002A000827C24BF51F8043B40F8043B08BF7047F0
:1002B000D20728BF31F8023B48BF11F8012B28BFF5
:1002C00020F8023B48BF00F8012B70477047704789
:1002D0007047754600F02CF8AE4605006946534657
:1002E00020F00700854618B020B5FFF7ABFFBDE84A
:1002F00020404FF000064FF000074FF000084FF08D
:10030000000B21F00701AC46ACE8C009ACE8C0091D
:10031000ACE8C009ACE8C0098D46704710B504468A
:10032000AFF300802046BDE81040FFF776BF000025
:10033000004870473000002001491820ABBEFEE79E
:1003400026000200704700BFFEE710B54FF4A06022
:1003500000F02AFB10BD000010B50B490B4800F05F
:10036000F5F801280ED10A4800690949496988420F
:1003700008D907480069401E054908610249034839
:1003800000F008F810BD00000088002088600240DE
:10039000040000200246094B9A4201D2084801E0BD
:1003A0000648103801F000531BB1064B0B40C360E8
:1003B00002E0044B0B408360704700001064024071
:1003C000006002407D0F7D0F21B1026842F0010202
:1003D000026003E0026822F0010202607047000040
:1003E000016821F00101016000210160416081602C
:1003F000C1600161212141614A49884204D13D2106
:10040000484A103A91608CE046491831884205D13B
:100410004FF47461434A103A916082E041493031AF
:10042000884205D14FF474113E4A103A916078E049
:100430003C494831884205D14FF07461394A103A3D
:1004400091606EE037496031884204D13649354ABF
:10045000103AD16065E033497831884204D133499C
:10046000304A103AD1605CE02E499031884204D184
:100470002F492C4A103AD16053E02A49A8318842CA
:1004800005D14FF03D51274A103AD16049E0294942
:10049000884204D13D21274A083A116041E02549AC
:1004A0001831884205D14FF47461224A083A11602C
:1004B00037E020493031884205D14FF474111D4A8C
:1004C000083A11602DE01B494831884205D14FF0B0
:1004D0007461184A083A116023E016496031884275
:1004E00004D11149134A121F11601AE011497831E1
:1004F000884204D10D490F4A121F116011E00D49C5
:100500009031884204D10A490A4A121F116008E05A
:100510000849A831884204D14FF03D51054A121FC5
:1005200011607047106002403D000020400F002025
:1005300000003D2010640240014600200A6802F0DD
:1005400001020AB1012000E00020704770B50246A8
:10055000002000240025124EB24201D2114B01E0CE
:100560000F4B103B104E0E4036B11E2606EAD1242A
:10057000166806EA040502E0566906F0800501F0F7
:1005800000560EB15C6800E01C68084E344004EA76
:10059000010616B10DB1012000E0002070BD000081
:1005A00010640240006002403C0F3C0F7D0F7D0F45
:1005B00010B501F080034BB122B1436943F08003D1
:1005C000436103E0436923F08003436180290BD03A
:1005D0002AB1036801F01E042343036004E00368AA
:1005E00001F01E04A343036010BD000010B50022FB
:1005F0000268134B1A40CC680B6823434C692343B1
:100600008C692343CC6923430C6A23434C6A2343FC
:100610008C6A23434C6B23438C6B23431A43026045
:10062000426922F00702D1E90B3423431A434261A5
:100630000B6943604B6883608B68C36010BD00002A
:100640003F801CF070470FB410B50446012C06D152
:100650009DF818100022039800F077F807E0022CAC
:1006600005D19DF818100122039800F06EF810BC17
:100670005DF814FBF0B50A4600210023002400BFFA
:100680003DE0012505FA01F3156805EA03049C42E3
:1006900034D105684F000326BE40B5430560157987
:1006A0004E00B5400668354305601579012D02D02E
:1006B0001579022D16D185684F000326BE40B5433B
:1006C000856055794E00B54086683543856045683C
:1006D00001268E40B5434560456896798E40B6B296
:1006E00035434560C5684F000326BE40B543C5602D
:1006F000D5794E00B540C6683543C560491C102900
:10070000BFD3F0BDF0B5002300244D07ED0E02FA73
:1007100005F3CE1000F1200555F826504E07F70ED0
:100720000F26BE40B543CF1000F1200646F82750F3
:10073000CE1000F1200555F8265045EA0304CE10EE
:1007400000F1200545F82640F0BD0AB1018300E024
:100750004183704700BFFEE700BFFEE70FB583B0DF
:1007600041490398884204D10121084600F028F944
:1007700058E03E490398884204D10121022000F04C
:100780001FF94FE03A490398884204D1012104201F
:1007900000F016F946E037490398884204D1012158
:1007A000082000F00DF93DE033490398884204D158
:1007B0000121102000F004F934E030490398884208
:1007C00004D10121202000F0FBF82BE02C490398F4
:1007D000884204D10121402000F0F2F822E02949AA
:1007E0000398884204D10121802000F0E9F819E043
:1007F00025490398884204D10121801500F0E0F8D2
:1008000010E022490398884204D10121401500F0EC
:10081000D7F807E01E490398884203D1012100154B
:1008200000F0CEF89DF81800019001208DF8080026
:1008300000208DF80A0003208DF8090001208DF8B2
:100840000B0001A90398FFF715FF02208DF809009E
:100850009DF81A00019000208DF8080001A9059864
:10086000FFF708FF07B000BD00000240000402408F
:1008700000080240000C0240001002400014024038
:1008800000180240001C02400020024000240240E8
:100890000028024010B58020134908604FF46C50C6
:1008A0004860002088600873487344F6206008613F
:1008B0004FF47A704861401088610C490A4801621F
:1008C0000B480949C861094907484162012180F87C
:1008D0002810022180F82910042180F82A101C30E9
:1008E0000FC8FFF73BFF10BD0400002000000240CE
:1008F000001002400FB408B59DF81400012810D173
:100900000C9800909DF8140009A90EC9FFF79BFEF2
:1009100000F058F900BF0448007B0028FBD100F02C
:100920006FF901B05DF814FB04000020704700006F
:1009300070B5002100230F22C4781CB3174C246823
:1009400004F4E064C4F5E064C4F30721C1F10404D5
:10095000E3B20A4144789C40E1B2847814402143D8
:100960000C07210E0E4C05786155047804F01F0524
:100970000124AC4005786D11AD0005F1E025C5F806
:10098000004109E0047804F01F050124AC40054D46
:100990000678761145F8264070BD00000CED00E0A9
:1009A00000E400E080E100E002490143024A1160F6
:1009B000704700000000FA050CED00E070470000F1
:1009C00029B1064A12680243044B1A6004E0034A44
:1009D00012688243014B1A607047000030380240B1
:1009E00029B1064A12680243044B1A6004E0034A24
:1009F00012688243014B1A60704700004038024081
:100A000029B1064A12680243044B1A6004E0034A03
:100A100012688243014B1A60704700002038024080
:100A200029B1064A12680243044B1A6004E0034AE3
:100A300012688243014B1A6070470000243802405C
:100A4000704700000CB50020019000903448006809
:100A500040F480303249086000BF3148006800F43B
:100A6000003000900198401C0190009818B901983E
:100A7000B0F5A04FF1D12A48006800F4003010B161
:100A80000120009001E0002000900098012846D14C
:100A900023484030006840F08050214940310860D0
:100AA0002048006840F440401E4908601C48083057
:100AB00000681B49083108600846006840F400409F
:100AC00008600846006840F4A05008601648091FF6
:100AD0000860081F006840F08070091F086000BFB0
:100AE0000F48006800F000700028F9D040F205704F
:100AF0000E4908600A480830006820F003000849E1
:100B0000083108600846006840F00200086000BF35
:100B100003480830006800F00C000828F8D10CBD2C
:100B2000003802400070004008544007003C02407A
:100B3000042808D14FF0E021096941F004014FF089
:100B4000E022116107E04FF0E021096921F0040182
:100B50004FF0E022116170477047000010B5154852
:100B6000006840F47000134908601348006840F0C2
:100B700001001149086000200F49083108600E4843
:100B800000680E4908400C4908600D48091D0860BE
:100B9000081F006820F48020091F08600020064913
:100BA0000C310860FFF74EFF4FF0006001498039BB
:100BB000086010BD88ED00E000380240FFFFF6FE3F
:100BC0001030002410B501225102480500F092F9BE
:100BD0004FF08040008C40F002004FF080410884CC
:100BE0000121880700F07AF901210448FFF7ECFBA6
:100BF000012210210148FFF7DBFC10BD8860024094
:100C000010B500224FF40071480500F073F94FF061
:100C10008040008C20F002004FF0804108840021C9
:100C20004FF0804000F05AF900210448FFF7CCFB58
:100C3000002210210148FFF7BBFC10BD8860024074
:100C400000B589B04FF0804000F05EF90121084600
:100C5000FFF7C6FE2348006907900020ADF8180092
:100C6000ADF81A00ADF820008DF8220006A94FF06B
:100C7000804000F06DFA7020ADF804000120ADF85E
:100C800006000420ADF80800164880690390002093
:100C9000ADF81000ADF812004FF48070ADF81400FC
:100CA0000020ADF8160001A94FF0804000F0FEF9D9
:100CB00000214FF0804000F0EFF900224FF4007166
:100CC000480500F017F94FF08040008C00F002005A
:100CD0004FF08041088400214FF0804000F0FEF882
:100CE00009B000BD0400002010B500F005F8FFF7C2
:100CF000A7FF00F0A5F810BD1CB54548006A45499E
:100D0000884204D101210846FFF75AFE62E04048BC
:100D1000006A4149884204D101210220FFF750FEB8
:100D200058E03B48006A3D49884204D10121042033
:100D3000FFF746FE4EE03648006A3949884204D142
:100D400001210820FFF73CFE44E03148006A3549A4
:100D5000884204D101211020FFF732FE3AE02C48EE
:100D6000006A3149884204D101212020FFF728FE82
:100D700030E02748006A2D49884204D101214020F3
:100D8000FFF71EFE26E02248006A2949884204D166
:100D900001218020FFF714FE1CE01D48006A254950
:100DA000884204D101218015FFF70AFE12E018489D
:100DB000006A2149884204D101214015FFF700FE55
:100DC00008E01348006A1D49884203D1012100153B
:100DD000FFF7F6FD02208DF8040003208DF80500D2
:100DE00000208DF8060001208DF80700084890F8D3
:100DF000290000900649086A6946FFF73BFC044A4F
:100E000092F82910106A0122FFF77CFC1CBD00003B
:100E100004000020000002400004024000080240DC
:100E2000000C024000100240001402400018024072
:100E3000001C024000200240002402400028024022
:100E400000B591B001214805FFF7BAFD2048FFF732
:100E5000C7FA00BF1E48FFF76FFB0028FAD14FF01A
:100E6000C06002901B4803901B480490012006902C
:100E700040200590002007904FF4806008904000CB
:100E8000099080000A9040110B9040020C900020C5
:100E90000D9001200E9000200F90109002A90C4898
:100EA0003038FFF7A3FB10208DF8040000208DF8E8
:100EB00005008DF8060001208DF8070001A8FFF756
:100EC00037FD002210210248FFF772FB11B000BD70
:100ED000886002402C0800401400002021B10288E4
:100EE00042F00102028004E002884FF6FE731A40CD
:100EF000028070471AB183890B43838102E08389A2
:100F00008B4383817047000010B5044655488442E6
:100F100008D101210846FFF783FD00210120FFF7DA
:100F20007FFD9DE0B4F1804F08D101210846FFF715
:100F300067FD00210120FFF763FD91E04A488442EC
:100F400008D101210220FFF75BFD00210220FFF7FD
:100F500057FD85E04548844208D101210420FFF770
:100F60004FFD00210420FFF74BFD79E0404884420B
:100F700008D101210820FFF743FD00210820FFF7D9
:100F80003FFD6DE03B48844208D101211020FFF76E
:100F900037FD00211020FFF733FD61E03648844221
:100FA00008D101212020FFF72BFD00212020FFF791
:100FB00027FD55E03148844208D101210220FFF786
:100FC0002FFD00210220FFF72BFD49E02C48844231
:100FD00009D101210804FFF723FD00214FF48030DF
:100FE000FFF71EFD3CE02748844209D10121480457
:100FF000FFF716FD00214FF40030FFF711FD2FE041
:101000002148844209D101218804FFF709FD00210C
:101010004FF48020FFF704FD22E01C48844208D1F1
:1010200001214020FFF7ECFC00214020FFF7E8FC05
:1010300016E01748844208D101218020FFF7E0FC28
:1010400000218020FFF7DCFC0AE01248844207D12F
:1010500001218015FFF7D4FC0021A015FFF7D0FC7B
:1010600010BD0000000001400004004000080040E6
:10107000000C00400010004000140040000401403B
:101080000040014000440140004801400018004079
:10109000001C0040002000400A460021018B4FF652
:1010A000F7731940114301837047000070B50024A5
:1010B00000220023058C4FF6EF7635400584028C24
:1010C0008388048B48F6FF752C404FF6FF452C4073
:1010D0000D884FF6FF7606EA05252C434FF6DF759F
:1010E0002A408D8906EA05152A434D8806EA05152A
:1010F0002A43154DA84202D0144DA8421DD14FF6E7
:101100007F752A40CD894FF6FF7606EA05152A43FA
:101110004FF6BF752A408D8806EA05152A434FF61B
:10112000FF352B404FF2FF752B400D8A06EA8505EF
:101130002B434D8A06EA85052B43838004838D6803
:101140008563028470BD000000000140000401407E
:1011500000220288184B98420ED0184B98420BD0B0
:10116000B0F1804F08D0164B984205D0154B9842ED
:1011700002D0154B984204D14FF68F731A404B881A
:101180001A43124B984207D0114B984204D04FF6A5
:10119000FF431A400B891A4302804B68C3620B88D5
:1011A0000385054B984202D0044B984201D18B7ABB
:1011B0000386012383827047000001400004014040
:1011C0000004004000080040000C004000100040F7
:1011D0000014004000BFFEE710B504466FF00400A5
:1011E000FFF7A6FCE11704EB5171C1F3C701074AF1
:1011F00011701046007800EB4001C1EBC0104FF6B3
:10120000FF7101EAC0000249088010BD0000002003
:101210000200002000B587B0FFF797F8A820FFF77D
:10122000DBFFFFF737FBFFF75FFD0120074908737E
:1012300048731C2210316846FFF716F803480FC8A0
:10124000FFF758FB002007B000BD0000040000209D
:101250004FF04070E1EE100A704700007C12000869
:101260000000002004000000C401000880120008F3
:10127000040000208C060000E001000800000000CF
:040000050800018965
:00000001FF
