:020000040800F2
:100000009806002029020008DD0900088107000881
:100010008507000847030008B1130008000000002E
:10002000000000000000000000000000F10A0008CD
:1000300071060008000000006D0A0008090C0008A5
:10004000430200084302000843020008430200087C
:10005000430200084302000843020008430200086C
:10006000430200084302000843020008430200085C
:10007000430200084302000843020008430200084C
:100080005903000843020008430200084302000825
:10009000430200084302000843020008430200082C
:1000A000430200084302000843020008430200081C
:1000B000430200084302000843020008430200080C
:1000C00043020008430200084302000843020008FC
:1000D00043020008430200084302000843020008EC
:1000E00043020008430200084302000843020008DC
:1000F00043020008430200084302000843020008CC
:1001000043020008430200084302000843020008BB
:1001100043020008430200084302000843020008AB
:10012000430200084302000843020008430200089B
:10013000430200084302000843020008430200088B
:10014000430200084302000843020008430200087B
:10015000430200084302000843020008430200086B
:10016000430200084302000843020008430200085B
:10017000430200084302000843020008430200084B
:10018000430200084302000800F002F800F03CF8C7
:100190000AA090E8000C82448344AAF10107DA45E2
:1001A00001D100F031F8AFF2090EBAE80F0013F0F8
:1001B000010F18BFFB1A43F0010318477C1200001F
:1001C0009C120000103A24BF78C878C1FAD85207B0
:1001D00024BF30C830C144BF04680C6070470000C1
:1001E0000023002400250026103A28BF78C1FBD840
:1001F000520728BF30C148BF0B6070471FB501F0E0
:1002000015F91FBD10B510BD00F063F81146FFF7DA
:10021000F5FF01F0EDF800F081F803B4FFF7F2FF0D
:1002200003BC00F089F800000948804709480047EE
:10023000FEE7FEE7FEE7FEE7FEE7FEE7FEE7FEE796
:10024000FEE7FEE704480549054A064B70470000F3
:100250000D0C000889010008980000209806002075
:10026000980200209802002010B5203AC0F00B80C0
:10027000B1E81850203AA0E81850B1E81850A0E8AA
:100280001850BFF4F5AF5FEA027C24BFB1E8185004
:10029000A0E8185044BF18C918C0BDE810405FEA74
:1002A000827C24BF51F8043B40F8043B08BF7047F0
:1002B000D20728BF31F8023B48BF11F8012B28BFF5
:1002C00020F8023B48BF00F8012B70477047704789
:1002D0007047754600F02CF8AE4605006946534657
:1002E00020F00700854618B020B5FFF7ABFFBDE84A
:1002F00020404FF000064FF000074FF000084FF08D
:10030000000B21F00701AC46ACE8C009ACE8C0091D
:10031000ACE8C009ACE8C0098D46704710B504468A
:10032000AFF300802046BDE81040FFF776BF000025
:10033000004870473800002001491820ABBEFEE796
:1003400026000200704700BFFEE710B54FF4A06022
:1003500000F082FB10BD000010B51649164800F0F1
:100360000BF9012824D11548007B78B113480069A6
:1003700012494969884204D910480069401E0F4952
:1003800008610C490C4800F01BF811E00B48007B99
:1003900070B90A48006909498969884204D2074846
:1003A0000069401C054908610249034800F008F84B
:1003B00010BD00000088002088600240040000207A
:1003C0000246094B9A4201D2084801E0064810381B
:1003D00001F000531BB1064B0B40C36002E0044B1D
:1003E0000B408360704700001064024000600240D0
:1003F0007D0F7D0F21B1026842F00102026003E02F
:10040000026822F00102026070470000016821F0DA
:10041000010101600021016041608160C1600161F2
:10042000212141614A49884204D13D21484A103A7C
:1004300091608CE046491831884205D14FF47461CF
:10044000434A103A916082E041493031884205D1F7
:100450004FF474113E4A103A916078E03C494831BB
:10046000884205D14FF07461394A103A91606EE0CC
:1004700037496031884204D13649354A103AD16053
:1004800065E033497831884204D13349304A103A23
:10049000D1605CE02E499031884204D12F492C4A2A
:1004A000103AD16053E02A49A831884205D14FF073
:1004B0003D51274A103AD16049E02949884204D188
:1004C0003D21274A083A116041E025491831884208
:1004D00005D14FF47461224A083A116037E020498F
:1004E0003031884205D14FF474111D4A083A116029
:1004F0002DE01B494831884205D14FF07461184AFC
:10050000083A116023E016496031884204D111494C
:10051000134A121F11601AE011497831884204D140
:100520000D490F4A121F116011E00D4990318842A8
:1005300004D10A490A4A121F116008E00849A8318B
:10054000884204D14FF03D51054A121F1160704797
:10055000106002403D000020400F002000003D20C0
:1005600010640240014600200A6802F001020AB14C
:10057000012000E00020704770B5024600200024F2
:100580000025124EB24201D2114B01E00F4B103B3D
:10059000104E0E4036B11E2606EAD124166806EA31
:1005A000040502E0566906F0800501F000560EB120
:1005B0005C6800E01C68084E344004EA010616B18D
:1005C0000DB1012000E0002070BD00001064024069
:1005D000006002403C0F3C0F7D0F7D0F10B501F015
:1005E00080034BB122B1436943F08003436103E0D0
:1005F000436923F08003436180290BD02AB103684B
:1006000001F01E042343036004E0036801F01E04AC
:10061000A343036010BD000010B500220268134B15
:100620001A40CC680B6823434C6923438C692343ED
:10063000CC6923430C6A23434C6A23438C6A2343CB
:100640004C6B23438C6B23431A430260426922F0B4
:100650000702D1E90B3423431A4342610B6943601B
:100660004B6883608B68C36010BD00003F801CF046
:1006700070470FB410B50446012C06D1BDF8181010
:100680000022039800F077F807E0022C05D1BDF8AE
:1006900018100122039800F06EF810BC5DF814FBEE
:1006A000F0B50A4600210023002400BF3DE00125EB
:1006B00005FA01F3156805EA03049C4234D1056884
:1006C0004F000326BE40B543056015794E00B54086
:1006D0000668354305601579012D02D01579022D84
:1006E00016D185684F000326BE40B5438560557915
:1006F0004E00B540866835438560456801268E40CA
:10070000B5434560456896798E40B6B2354345603D
:10071000C5684F000326BE40B543C560D5794E007D
:10072000B540C6683543C560491C1029BFD3F0BD2C
:10073000F0B5002300244D07ED0E02FA05F3CE10AC
:1007400000F1200555F826504E07F70E0F26BE4043
:10075000B543CF1000F1200646F82750CE1000F127
:10076000200555F8265045EA0304CE1000F1200577
:1007700045F82640F0BD0AB1018300E0418370478F
:1007800000BFFEE700BFFEE70FB41CB54249049866
:10079000884204D10121084600F06AF958E03F4937
:1007A0000498884204D10121022000F061F94FE051
:1007B0003B490498884204D10121042000F058F9F3
:1007C00046E038490498884204D10121082000F00D
:1007D0004FF93DE034490498884204D101211020AA
:1007E00000F046F934E031490498884204D10121EF
:1007F000202000F03DF92BE02D490498884204D1D7
:100800000121402000F034F922E02A49049888426E
:1008100004D10121802000F02BF919E02649049829
:10082000884204D10121801500F022F910E023490B
:100830000498884204D10121401500F019F907E01D
:100840001F490498884203D10121001500F010F9D6
:10085000BDF81C00009001208DF8040000208DF8E8
:10086000060003208DF8050001208DF80700694679
:100870000498FFF715FF02208DF80500BDF8200051
:10088000009000208DF8040069460698FFF708FFE5
:100890001CBC5DF814FB0000000002400004024094
:1008A00000080240000C0240001002400014024008
:1008B00000180240001C02400020024000240240B8
:1008C0000028024008B58020154908604FF46C509C
:1008D0004860002088600873487349F6404008610A
:1008E00040F6B830486149F64040886140F2DC503B
:1008F000C8610C490A4841620B4809490862094924
:100900000748816201218185C18504210186006B30
:100910000090034820300FC8FFF736FF08BD0000E5
:100920000400002000000240001002400FB41CB57B
:100930009DF81C0001281CD1DDE90F01CDE9000163
:100940009DF81C000CA90EC9FFF793FE00F092F968
:100950000AE0204800691F494969884204D1002201
:1009600010211D48FFF73AFE1A48007B0028F0D1FD
:100970002CE09DF81C0002281CD1DDE90F01CDE917
:1009800000019DF81C000CA90EC9FFF772FE00F0D3
:1009900071F90AE00F4800690E494969884204D19B
:1009A000002210210C48FFF719FE0A48007B00289E
:1009B000F0D10BE09DF81C0040B900BF054800696C
:1009C000044989698842F9D300F072F91CBC5DF8CA
:1009D00014FB000004000020886002407047000003
:1009E00070B5002100230F22C4781CB3174C246873
:1009F00004F4E064C4F5E064C4F30721C1F1040425
:100A0000E3B20A4144789C40E1B284781440214327
:100A10000C07210E0E4C05786155047804F01F0573
:100A20000124AC4005786D11AD0005F1E025C5F855
:100A3000004109E0047804F01F050124AC40054D95
:100A40000678761145F8264070BD00000CED00E0F8
:100A500000E400E080E100E002490143024A116045
:100A6000704700000000FA050CED00E07047000040
:100A700029B1064A12680243044B1A6004E0034A93
:100A800012688243014B1A60704700003038024000
:100A900029B1064A12680243044B1A6004E0034A73
:100AA00012688243014B1A607047000040380240D0
:100AB00029B1064A12680243044B1A6004E0034A53
:100AC00012688243014B1A607047000020380240D0
:100AD00029B1064A12680243044B1A6004E0034A33
:100AE00012688243014B1A607047000024380240AC
:100AF000704700000CB50020019000903448006859
:100B000040F480303249086000BF3148006800F48A
:100B1000003000900198401C0190009818B901988D
:100B2000B0F5A04FF1D12A48006800F4003010B1B0
:100B30000120009001E0002000900098012846D19B
:100B400023484030006840F080502149403108601F
:100B50002048006840F440401E4908601C480830A6
:100B600000681B49083108600846006840F40040EE
:100B700008600846006840F4A05008601648091F45
:100B80000860081F006840F08070091F086000BFFF
:100B90000F48006800F000700028F9D040F205709E
:100BA0000E4908600A480830006820F00300084930
:100BB000083108600846006840F00200086000BF85
:100BC00003480830006800F00C000828F8D10CBD7C
:100BD000003802400070004008544007003C0240CA
:100BE000042808D14FF0E021096941F004014FF0D9
:100BF000E022116107E04FF0E021096921F00401D2
:100C00004FF0E022116170477047000010B51548A1
:100C1000006840F47000134908601348006840F011
:100C200001001149086000200F49083108600E4892
:100C300000680E4908400C4908600D48091D08600D
:100C4000081F006820F48020091F08600020064962
:100C50000C310860FFF74EFF4FF00060014980390A
:100C6000086010BD88ED00E000380240FFFFF6FE8E
:100C70001030002410B501225102480500F03CFA62
:100C80004FF08040008C40F002004FF0804108841B
:100C90000121880700F024FA01210448FFF7AAFB8C
:100CA000012210210148FFF799FC10BD8860024025
:100CB00010B500224FF40071480500F01DFA4FF006
:100CC0008040008C20F002004FF080410884002119
:100CD0004FF0804000F004FA00210448FFF78AFB3F
:100CE000002210210148FFF779FC10BD8860024006
:100CF00000B589B04FF0804000F008FA01210846A5
:100D0000FFF7C6FE1B48006907900020ADF81800E9
:100D1000ADF82000ADF81A0006A94FF0804000F0B1
:100D200005FB6020ADF804000120ADF80600114875
:100D3000C06903900020ADF8100001A94FF0804079
:100D400000F0ACFA0821C80600F0E6FA00214FF0E6
:100D5000804000F0B9F94FF08040008C40F0020074
:100D60004FF08041088400214FF0804000F0B8F936
:100D700009B000BD0400002010B500F005F8FFF731
:100D8000B7FF00F053F910BD1CB59C48406A9C4960
:100D9000884204D101210846FFF76AFE62E09748C5
:100DA000406A9849884204D101210220FFF760FE81
:100DB00058E09248406A9449884204D101210420B5
:100DC000FFF756FE4EE08D48406A9049884204D1B4
:100DD00001210820FFF74CFE44E08848406A8C4916
:100DE000884204D101211020FFF742FE3AE08348F7
:100DF000406A8849884204D101212020FFF738FE4B
:100E000030E07E48406A8449884204D10121402074
:100E1000FFF72EFE26E07948406A8049884204D1D7
:100E200001218020FFF724FE1CE07448406A7C49C1
:100E3000884204D101218015FFF71AFE12E06F48A5
:100E4000406A7849884204D101214015FFF710FE1D
:100E500008E06A48406A7449884203D101210015BC
:100E6000FFF706FE6548C08D009002208DF8040053
:100E700003208DF8050000208DF8060001208DF874
:100E800007005E49486A6946FFF70AFC5B48C08D67
:100E9000012806D159490122486A0021FFF748FC80
:100EA000ABE05648C08D022806D154490122486A59
:100EB0001146FFF73DFCA0E05048C08D042806D144
:100EC0004E490122486A0221FFF732FC95E04B4867
:100ED000C08D082806D149490122486A0321FFF73D
:100EE00027FC8AE04548C08D102806D143490122DD
:100EF000486A0421FFF71CFC7FE04048C08D202891
:100F000006D13E490122486A0521FFF711FC74E031
:100F10003A48C08D402806D138490122486A062146
:100F2000FFF706FC69E03548C08D802806D13349BB
:100F30000122486A0721FFF7FBFB5EE02F48C08DC6
:100F4000B0F5807F06D12D490122486A0821FFF7BC
:100F5000EFFB52E02948C08DB0F5007F06D127494C
:100F60000122486A0921FFF7E3FB46E02348C08DD0
:100F7000B0F5806F06D121490122486A0A21FFF7A6
:100F8000D7FB3AE01D48C08DB0F5006F06D11B4974
:100F90000122486A0B21FFF7CBFB2EE01748C08DDA
:100FA000B0F5805F06D115490122486A0C21FFF790
:100FB000BFFB22E01148C08DB0F5005F06D10F499C
:100FC0000122486A0D21FFF7B3FB16E00B48C08DE4
:100FD000B0F5804F06D109490122486A0E21FFF77A
:100FE000A7FB0AE00548C08DB0F5004F05D10349C5
:100FF0000122486A0F21FFF79BFB1CBD0400002063
:10100000000002400004024000080240000C0240C0
:10101000001002400014024000180240001C024070
:1010200000200240002402400028024000B591B098
:1010300001214805FFF71CFD2048FFF7E7F900BF35
:101040001E48FFF78FFA0028FAD14FF0C0600290D7
:101050001B4803901B4804900120069040200590F7
:10106000002007904FF480600890800009904000B5
:101070000A9040110B9040020C9000200D9001202E
:101080000E9000200F90109002A90C48FFF7C4FAB0
:1010900010208DF8040000208DF805008DF8060062
:1010A00001208DF8070001A8FFF79AFC002210210B
:1010B0000248FFF793FA11B000BD000088600240BB
:1010C0002C0000401400002021B1028842F0800270
:1010D000028004E002884FF67F731A400280704756
:1010E00021B1028842F00102028004E002884FF63A
:1010F000FE731A40028070471AB183890B438381C3
:1011000002E083898B4383817047000010B5044659
:101110005548844208D101210846FFF7D9FC002137
:101120000120FFF7D5FC9DE0B4F1804F08D10121EB
:101130000846FFF7BDFC00210120FFF7B9FC91E054
:101140004A48844208D101210220FFF7B1FC002166
:101150000220FFF7ADFC85E04548844208D101211B
:101160000420FFF7A5FC00210420FFF7A1FC79E093
:101170004048844208D101210820FFF799FC002152
:101180000820FFF795FC6DE03B48844208D101211F
:101190001020FFF78DFC00211020FFF789FC61E093
:1011A0003648844208D101212020FFF781FC00212C
:1011B0002020FFF77DFC55E03148844208D1012111
:1011C0000220FFF785FC00210220FFF781FC49E0A7
:1011D0002C48844209D101210804FFF779FC002141
:1011E0004FF48030FFF774FC3CE02748844209D17B
:1011F00001214804FFF76CFC00214FF40030FFF799
:1012000067FC2FE02148844209D101218804FFF7BF
:101210005FFC00214FF48020FFF75AFC22E01C48BD
:10122000844208D101214020FFF742FC00214020E8
:10123000FFF73EFC16E01748844208D101218020C8
:10124000FFF736FC00218020FFF732FC0AE012484D
:10125000844207D101218015FFF72AFC0021A01547
:10126000FFF726FC10BD0000000001400004004014
:1012700000080040000C0040001000400014004036
:10128000000401400040014000440140004801408A
:1012900000180040001C00400020004070B50024F1
:1012A00000220023058C4FF6FE7635400584028C23
:1012B0008388048B4FF68F752C40B51E2C400D880B
:1012C0002C43751E2A408D892A434D882A43104D90
:1012D000A84202D00F4DA84213D14FF6F7752A400D
:1012E000CD892A434FF6FB752A408D882A434FF655
:1012F000FF652B404FF6FF552B400D8A2B434D8A3F
:101300002B43838004838D684563028470BD000095
:1013100000000140000401400A460021018B4FF605
:10132000F7731940114301837047000000220288BF
:10133000184B98420ED0184B98420BD0B0F1804F0A
:1013400008D0164B984205D0154B984202D0154B49
:10135000984204D14FF68F731A404B881A43124BB0
:10136000984207D0114B984204D04FF6FF431A40E1
:101370000B891A4302804B68C3620B880385054BB7
:10138000984202D0044B984201D18B7A0386012304
:1013900083827047000001400004014000040040C7
:1013A00000080040000C0040001000400014004005
:1013B00000BFFEE710B504466FF00400FFF710FC15
:1013C000E11704EB5171C1F3C701074A11701046D0
:1013D000007800EB4001C1EBC0104FF6FF7101EA4D
:1013E000C0000249088010BD00000020020000205B
:1013F00000B589B0FEF7A9FFA820FFF7DBFFFFF7D4
:1014000061FAFFF7B9FC01200749087348732422E9
:1014100010316846FEF728FF03480FC8FFF786FA29
:10142000002009B000BD0000040000204FF0407013
:10143000E1EE100A70470000581400080000002078
:1014400004000000C40100085C140008040000202F
:0C14500094060000E0010008000000000D
:040000050800018965
:00000001FF
